:100A1A0000A8C0003F065B4F666D7D077F6F000828
:0E0A2A0040014148BF86DBCFE6EDFD87FFEFC0
:100A8600120003BF010E751C017D147C007FE87EF9
:050A960003120701221C
:100A7000E51CB4FF03E4F51CE51C600525E004F566
:060A80001CAF1C020AE895
:10086500120A55120A381209DA7BFF7A0A79867F4D
:10087500051206847BFF7A0A79707F021206847D51
:1008850007E4FF120AC67525047526057527067542
:1008950028077529087B037D027F011209FA120AD0
:0608A500EE12097480FB55
:0409B200151E151EDB
:1009B600120ACFA81EA60608A607A81EE6FE08E687
:0F09C600FF4E600BEF24FFFFEE34FFFE120AD846
:0509D500051E051E22B5
:1009DA0053B1EF43B210120AF7E4F5D975DA49D2E6
:1009EA00DE90003F74FFF0A37409F0A374B2F02202
:080701008E228F238C248D252C
:10070900120ACFEF4E7066AF25AE24120AD8C3E5A0
:1007190023940AE5229400404BE47B18FAF9F890F7
:100729000A1A12019C1200F6C006C007AE22AF23B6
:10073900AB07AA06E4F9F8D007D0061200F6AB0712
:10074900AA06AFF9EFFEADE97C00E42DFFEC3ECF40
:100759002BCF3AAD07FCAF03AE02120A9BD2D843A6
:0F076900DA018006120AF753DAFE7F02227F03BD
:01077800225E
:0C0ABA00120ACFEF4E7002FF227F0122D3
:1002AB00E4F580900079E0FFB40800505F9002BF46
:1002BB00F82828730202D70202DD0202E30202E9E8
:1002CB000202EF0202F902030302030DC2A3C2A250
:1002DB008016C2A3C2A2801AC2A3C2A2801EC2A34E
:1002EB00C2A28022C2A3D2A2C2A1C2A08020C2A35A
:1002FB00D2A2C2A1D2A08016C2A3D2A2D2A1C2A066
:10030B00800CC2A3D2A2D2A1D2A08002D2A3C3EFEF
:10031B00648094885029900079E0FF3395E0FE7457
:10032B00702FF58274003EF583E0FF3395E0FE7489
:10033B001E2FF582740A3EF583E493F580801E90A0
:10034B000079E0FFB408133395E0FE74702FF5824B
:10035B0074003EF583E0F5808003E4F58090006F38
:10036B00E0FF900079E004FEF0D3EF6480F8EE64D8
:10037B0080984014E0D36480948850047408F02271
:09038B0090006EE0900079F02270
:100A5500E4F5937594FF5395F043960F90002A742F
:0B0A6500FFF0A37402F0A374ABF022BA
:090AC60090006EEFF0A3EDF022A8
:1009FA00900070EFF0A3EDF0A3EBF0A3E525F0A3D0
:100A0A00E526F0A3E527F0A3E528F0A3E529F022DF
:060AE800900078EFF022FF
:10043C00011D0041007D0041007A0541007B834194
:03044C00007C83AE
:1008AB0020920690007BE014F090007AE014F07038
:1008BB00347405F0A3E0FFC39480500EA3E0948042
:1008CB004018A37401F0F51D801090007CE0C394D8
:1008DB00805007A37402F0751D0190007CEFF0901F
:0508EB00007B7483F0A6
:0108F00022E5
:020AAC00151E15
:090AAE00A81EA61DE4F51DE6FFDB
:030AB700051E22F7
:100A380090003674FFF0A3740AF0A374ACF0900031
:0D0A48003374FFF0A37408F0A374ABF02228
:0700030090007DE0FFE4F036
:01000A0022D3
:10044F004100000A4100290A41006D0A040E000014
:10045F0000000114004600670000FFFF8FFFC10D71
:10046F00C105C108C101C10E60240005FF0039FF9D
:10047F000039FF0039FF0039FF0039FF0039FF0055
:10048F0039FF0039FF0039FF0039FF0039FF00390C
:10049F006036002AFF0039FF0039FF0AF4FF0039E8
:1004AF00FF0AF4FF0039FF0AF4FF0039FF0039FF9C
:1004BF000039FF0AF4FF0AF4FF0AF4FF0AF4FF0001
:0A04CF0039FF0039FF0039FF003942
:0100390022A4
:030AF4007F00225E
:10081E00438E805389F07BE07A2879017800900A24
:10082E001A12019C1208F1EFF404F58A7BE07A2883
:10083E0079017800900A1A12019C1208F1C3E49F04
:10084E00FFE49EFE74019DFDE49CFC780812018875
:07085E008F8CD28CD2A9227D
:03000B000207CC1D
:0407CC00C0E0C0D0F9
:1007D000D5080A75084C300D020514D20DA203721B
:1007E000045036150AE50A7030850C0AD207300A23
:1007F00017E50D6007150D438F01801D538FFEC255
:10080000B5D51615C20A8011050BE50BD394064029
:0908100008C203E5136002D206E0
:05081900D0D0D0E03258
:10077900300E47C20E900A1A12019C781012018895
:100789008E1A8F1B900003E0FEA3E0FFE4FCFD7BC3
:1007990019FAF9F812006BC006C007AE1AAF1BAB05
:1007A90007AA06E4F9F8D007D0061208F17803126F
:1007B9000188900065EEF0A3EFF0900065E0FEA3DC
:0207C900E0FF4F
:0107CB00220B
:090ACF00900067E0FEA3E0FF22A5
:090AD800900067EEF0A3EFF0229C
:100A9B0090006BEEF0A3EFF0900069ECF0A3EDF09B
:010AAB002228
:030AF700C2B42264
:03003B0002039429
:10039400C0E0C083C082C0D075D000C004C005C016
:0303A40006C00789
:1003A70030DF04C2DF807D30DA04C2DA807630D9EC
:1003B7003DC2D9AFFBEFFEADEB7C00E42DFFEC3E79
:1003C70020000E900001F0A3EFF075DB11D2008042
:1003D70053FE900001E0FCA3E0FDC3EF9DFFEE9C00
:1003E700A3F0A3EFF075DB00C200D20E803630D841
:1003F70033C2D8900067E07002A3E06022B2B490E5
:100407000069E0FEA3E0F5EAEEF5FAA3E0FEA3E05B
:10041700FF90006AE02FF0900069E03EF08005C28F
:04042700B453DAFEF2
:10042B00D007D006D005D004D0D0D082D083D0E076
:01043B00328E
:060AEE0012081ED2AF2227
:1005F9003004047F0180027F00200A047E0180020A
:100609007E00EE5F6074E515C395095068300236C7
:10061900750D01E515131313541FAB17AA18A91962
:10062900F58275830012003EFFE515540704FEEFBD
:10063900A806088002C333D8FC30D7057516038095
:100649002F751601802AAB17AA18A91975F002E5AA
:1006590015A4F58285F08312003EF50DE51575F0B8
:1006690002A429F9EA35F0FA90000112003EF516C4
:0A0679000515D20A22C204438F10B7
:010683002254
:1001BE00900000E014F0701F740AF0D20590002930
:1001CE00E014F07012740AF0D20890006DE014F092
:1001DE007005740AF0D20190002AA3E0FAA3E0F9A8
:1001EE001201B890002DA3E0FAA3E0F91201B89025
:1001FE000039A3E0FAA3E0F91201B8900045A3E09C
:10020E00FAA3E0F91201B8900054A3E0FAA3E0F9C2
:10021E001201B890005DA3E0FAA3E0F91201B890C4
:10022E00004BA3E0FAA3E0F91201B8EF600C9000C6
:10023E001DA3E0FAA3E0F91201B890004EA3E0FA74
:10024E00A3E0F91201B8EF600E900020A3E0FAA32C
:10025E00E0F91201B8D20BE512D394004016D51274
:10026E003030090C900023A3E0FAA3E0F91201B894
:10027E00D20C801D900051A3E0FAA3E0F91201B850
:10028E00EF600E900023A3E0FAA3E0F91201B8D2BA
:0D029E000C900005A3E0FAA3E0F90201B8FE
:1004DA0090003FA3E0FAA3E0F91201B8900042A30A
:1004EA00E0FAA3E0F91201B8900033A3E0FAA3E01E
:1004FA00F91201B8900008A3E0FAA3E0F91201B8D2
:10050A00900030A3E0FAA3E0F91201B8EF600C9072
:10051A000011A3E0FAA3E0F91201B8900036A3E0B3
:10052A00FAA3E0F91201B8EF600C900017A3E0FA01
:10053A00A3E0F91201B8900048A3E0FAA3E0F91287
:10054A0001B8EF600C90001AA3E0FAA3E0F91201D7
:10055A00B830060EC206900026A3E0FAA3E0F9120C
:03056A0001B822B3
:1009350090000BA3E0FAA3E0F91201B890003CA3E4
:10094500E0FAA3E0F91201B8EF600C900014A3E0FF
:10095500FAA3E0F91201B8900057A3E0FAA3E0F971
:0F0965001201B890005AA3E0FAA3E0F90201B81A
:10000E00AF11AE10AD0FAC0E9000601201AC9000AF
:10001E0064E514F0E4F511F510F50FF50EF51490F6
:0B002E00000EA3E0FAA3E0F90201B805
:10097400300705C2071205F9300D05C20D1201BE7C
:10098400300505C2051204DA300805C2081209351B
:10099400300105C20112000EE5112401F511E43500
:0E09A40010F510E4350FF50FE4350EF50E22B8
:100684008B228A238924EFB40C005070900697F8CB
:100694002828730206BB0206C00206C50206CA0267
:1006A40006CF0206D40206D90206DE0206E30206DB
:1006B400E80206ED0206F2900005803590000880FD
:1006C4003090000B802B90000E802690001180212A
:1006D400900017801C900014801790001A801290CC
:1006E400001D800D9000208008900023800390005E
:0D06F40026E522F0A3E523F0A3E524F02283
:070AE1007B017A007960221D
:0300000002056D89
:0C056D00787FE4F6D8FD7581290205B402
:10003E00BB010CE58229F582E5833AF583E0225077
:10004E0006E92582F8E622BBFE06E92582F8E222C1
:0D005E00E58229F582E5833AF583E49322DB
:10006B00E88FF0A4CC8BF0A42CFCE98EF0A42CFC34
:10007B008AF0EDA42CFCEA8EF0A4CDA8F08BF0A4B2
:10008B002DCC3825F0FDE98FF0A42CCD35F0FCEB11
:10009B008EF0A4FEA9F0EB8FF0A4CFC5F02ECD39D6
:0F00AB00FEE43CFCEAA42DCE35F0FDE43CFC2243
:1000BA0075F008758200EF2FFFEE33FECD33CDCCFD
:1000CA0033CCC58233C5829BED9AEC99E582984080
:1000DA000CF582EE9BFEED9AFDEC99FC0FD5F0D65D
:1000EA00E4CEFBE4CDFAE4CCF9A88222B800C1B987
:1000FA000059BA002DEC8BF084CFCECDFCE5F0CBC5
:10010A00F97818EF2FFFEE33FEED33FDEC33FCEBFD
:10011A0033FB10D703994004EB99FB0FD8E5E4F9B8
:10012A00FA227818EF2FFFEE33FEED33FDEC33FCA5
:10013A00C933C910D7059BE99A4007EC9BFCE99A99
:10014A00F90FD8E0E4C9FAE4CCFB2275F010EF2FDE
:10015A00FFEE33FEED33FDCC33CCC833C810D707DE
:10016A009BEC9AE899400AED9BFDEC9AFCE899F819
:0E017A000FD5F0DAE4CDFBE4CCFAE4C8F922AC
:1008F100C2D5E830E70FB2D5E4C39BFBE49AFAE432
:1009010099F9E498F8EC30E717B2D51209271200EB
:10091100F6E4C39BFBE49AFAE499F9E498F88003BE
:100921001200F630D50DE4C39FFFE49EFEE49DFD69
:04093100E49CFC2224
:10018800E86010ECA2E713FCED13FDEE13FEEF138D
:04019800FFD8F0227A
:10019C00E493FC740193FD740293FE740393FF22A9
:0C01AC00ECF0A3EDF0A3EEF0A3EFF022C6
:0601B8008A838982E473D2
:10057900020865E493A3F8E493A34003F68001F22B
:1005890008DFF48029E493A3F85407240CC8C33383
:10059900C4540F4420C8834004F456800146F6DF52
:1005A900E4800B010204081020408090043CE47EA2
:1005B900019360BCA3FF543F30E509541FFEE49347
:1005C900A360010ECF54C025E060A840B8E493A30E
:1005D900FAE493A3F8E493A3C8C582C8CAC583CA39
:1005E900F0A3C8C582C8CAC583CADFE9DEE780BEF1
:0104D9000022
:00000001FF
