:1015440000A8C0003F065B4F666D7D077F6F0008F3
:0415540040017638A4
:1014570012151112152C7D07E4FF12156975250A5F
:1014670075260A75270A75280A75290A7B0A7D0ACF
:101477007F0A1214F1E4FF12158B7B647A007D0A50
:0D1487007F01120E4112159112141980FB05
:100D5800E4F58090008FE0FFB40800505F900D6CC0
:100D6800F8282873020D84020D8A020D90020D9650
:100D7800020D9C020DA6020DB0020DBAC2A3C2A2BA
:100D88008016C2A3C2A2801AC2A3C2A2801EC2A396
:100D9800C2A28022C2A3D2A2C2A1C2A08020C2A3A2
:100DA800D2A2C2A1D2A08016C2A3D2A2D2A1C2A0AE
:100DB800800CC2A3D2A2D2A1D2A08002D2A3C3EF38
:100DC80064809488502990008FE0FF3395E0FE748A
:100DD800862FF58274003EF583E0FF3395E0FE74BC
:100DE800482FF58274153EF583E493F580801E90B4
:100DF800008FE0FFB408133395E0FE74862FF58268
:100E080074003EF583E0F5808003E4F5809000856A
:100E1800E0FF90008FE004FEF0D3EF6480F8EE640A
:100E280080984014E0D36480948850047408F022B9
:090E3800900084E090008FF0228C
:10151100E4F5937594FF5395F043960F90002A7468
:0B152100FFF0A3740DF0A37458F0223B
:09156900900084EFF0A3EDF022E4
:1014F100900086EFF0A3EDF0A3EBF0A3E525F0A3B8
:10150100E526F0A3E527F0A3E528F0A3E529F022DD
:06158B0090008EEFF0223B
:100F940055006F0000000000000000000000000089
:0C0FA400000000000000000041006E0092
:02080000151FC2
:10080200A81FE4F6A81FE6FFC36480948340030296
:100812000A71EF3395E0FE90006F75F007EF120B4F
:100822008BEE75F007A42583F583E0FCA3E04C7002
:1008320003020A6B90007175F007EF120B8BEE75D5
:10084200F007A42583F583E0FEA3E04E7003020ABD
:100852006BE6FFFD3395E0FC90007375F007ED1237
:100862000B8BEC75F007A42583F58374FFF5F0126A
:100872000AF645F06003020A6B90007175F007ED0D
:10088200120B8BEC75F007A42583F583E0FAA3E045
:10089200FB90007375F007ED120B8BEC75F007A45B
:1008A2002583F583EAF0A3EBF0EF3395E0FE9000A9
:1008B2006F75F007EF120B8BEE75F007A42583F529
:1008C20083E0FCA3E0D39400EC648094804056A8BB
:1008D2001FE6FD3395E0FC90006F75F007ED120BFB
:1008E2008BEC75F007A42583F58374FFF5F0120AEB
:1008F200F690007575F007ED120B8BEC75F007A4FE
:100902002583F583E004F0D36480948340729000E1
:100912007575F007EF120B8BEE75F007A42583F5C2
:1009220083E4F0805BA81FE6FFFD3395E0FC9000B6
:100932006F75F007ED120B8BEC75F007A42583F5AC
:1009420083E475F001120AF690007575F007ED1256
:100952000B8BEC75F007A42583F583E014F0C364D8
:10096200809480501BEF3395E0FE90007575F00780
:10097200EF120B8BEE75F007A42583F5837403F059
:10098200A81FE6FFFD3395E0FC90007575F007EDBA
:10099200120B8BEC75F007A42583F583E014603C01
:1009A200146066147003020A3824036003020A63A7
:1009B200EF14601014601924026003020A63D2C1AA
:1009C200C2C2802990006EE054F04401F0020A6332
:1009D20090006EE0540F4410F0020A63A81FE61460
:1009E200601114601924027078C2C1D2C2C2C3C29B
:1009F200C4806E90006EE054F04402F08063900078
:100A02006EE0540F4420F08058A81FE614601114C1
:100A120060192402704BC2C1C2C2D2C3C2C4804197
:100A220090006EE054F04404F0803690006EE05482
:100A32000F4440F0802BA81FE614601114601924A3
:100A420002701EC2C1C2C2C2C3D2C4801490006E60
:100A5200E054F04408F0800990006EE0540F4480A6
:0F0A6200F090006EE0FF12158BA81F0602080629
:030A7100051F223C
:10152C0053B3E143B41E53C0E190005474FFF0A3D5
:08153C007408F0A37400F02212
:100E41008F22EF3395E0FE90006F75F007EF120BE4
:100E51008BEE75F007A42583F583E0FEA3E04E60D9
:100E610003020EE9E522600A64016006E5226402DC
:100E71007076ED60737C007E037FE8120AA1AD22DB
:100E8100ED3395E0FC90007175F007ED120B8BECE2
:100E910075F007A42583F583EEF0A3EFF0900071C0
:100EA10075F007ED120B8BEC75F007A42583F58324
:100EB100E0FEA3E0FF90007375F007ED120B8BECE1
:100EC10075F007A42583F583EEF0A3EFF090006F92
:100ED10075F007ED120B8BEC75F007A42583F583F4
:0B0EE100EAF0A3EBF07F02227F032267
:10130700EF600764016003BF023AEFFD3395E0FC2D
:1013170090006F75F007ED120B8BEC75F007A425A5
:1013270083F583E0FAA3E0FB90006F75F007ED12F9
:101337000B8BEC75F007A42583F583E4F0A3F0AEDF
:0713470002AF0322E4FEFFE8
:01134E00227C
:10149400EF600764016003BF0225EF3395E0FE901F
:1014A400006F75F007EF120B8BEE75F007A4258320
:1014B400F583E0FEA3E04E60037F01227F00227FDC
:0214C400032201
:100FB0004100000A4100290A41006D0A040E0000A8
:100FC00000000114004600670000FFFF8FFFC10D05
:100FD000C105C108C101C10E60240005FF159DFFB8
:100FE000159DFF159DFF159DFF159DFF159DFF1577
:100FF0009DFF159DFF159DFF159DFF159DFF159DDF
:101000006036002AFF159DFF159DFF1597FF159D62
:10101000FF1597FF159DFF1597FF159DFF159DFF68
:10102000159DFF1597FF1597FF1597FF1597FF154E
:0A1030009DFF159DFF159DFF159D06
:01159D00222B
:031597007F0022B0
:10134F00438E805389F07BE07A28790178009015DD
:10135F0044120B6F121396EFF404F58A7BE07A2890
:10136F0079017800901544120B6F121396C3E49F06
:10137F00FFE49EFE74019DFDE49CFC7808120B5B5C
:07138F008F8CD28CD2A92241
:03000B000212B529
:0412B500C0E0C0D005
:1012B900D5080A75084C300D020514D20DA2037227
:1012C900045036150AE50A7030850C0AD207300A2F
:1012D90017E50D6007150D438F01801D538FFEC261
:1012E900B5D51615C20A8011050BE50BD394064036
:0912F90008C203E5136002D206ED
:05130200D0D0D0E03264
:10126200300E47C20E901544120B6F7810120B5BB2
:101272008E1D8F1E900003E0FEA3E0FFE4FCFD7BC9
:1012820019FAF9F8120B0CC006C007AE1DAF1EAB5F
:1012920007AA06E4F9F8D007D006121396780312CB
:1012A2000B5B900065EEF0A3EFF0900065E0FEA30B
:0212B200E0FF5B
:0112B4002217
:09157200900067E0FEA3E0FF22F7
:09157B00900067EEF0A3EFF022EE
:1015580090006BEEF0A3EFF0900069ECF0A3EDF0D3
:011568002260
:03159A00C2B422B6
:03003B00020EECC6
:100EEC00C0E0C083C082C0D075D000C004C005C0B3
:030EFC0006C00726
:100EFF0030DF04C2DF807D30DA04C2DA807630D989
:100F0F003DC2D9AFFBEFFEADEB7C00E42DFFEC3E15
:100F1F0020000E900001F0A3EFF075DB11D20080DE
:100F2F0053FE900001E0FCA3E0FDC3EF9DFFEE9C9C
:100F3F00A3F0A3EFF075DB00C200D20E803630D8DD
:100F4F0033C2D8900067E07002A3E06022B2B49081
:100F5F000069E0FEA3E0F5EAEEF5FAA3E0FEA3E0F8
:100F6F00FF90006AE02FF0900069E03EF08005C22C
:040F7F00B453DAFE8F
:100F8300D007D006D005D004D0D0D082D083D0E013
:010F9300322B
:0615910012134FD2AF223D
:10115A003004047F0180027F00200A047E0180029D
:10116A007E00EE5F6074E515C3950950683002365B
:10117A00750D01E515131313541FAB17AA18A919F6
:10118A00F582758300120A74FFE515540704FEEF11
:10119A00A806088002C333D8FC30D7057516038029
:1011AA002F751601802AAB17AA18A91975F002E53E
:1011BA0015A4F58285F083120A74F50DE51575F00C
:1011CA0002A429F9EA35F0FA900001120A74F51618
:0A11DA000515D20A22C204438F104B
:0111E40022E8
:100C6B00900000E014F0701F740AF0D20590002978
:100C7B00E014F07012740AF0D20890006DE014F0DA
:100C8B007005740AF0D20190002AA3E0FAA3E0F9F0
:100C9B00120B9790002DA3E0FAA3E0F9120B97909B
:100CAB000039A3E0FAA3E0F9120B97900045A3E0FB
:100CBB00FAA3E0F9120B97900054A3E0FAA3E0F922
:100CCB00120B9790005DA3E0FAA3E0F9120B97903B
:100CDB00004BA3E0FAA3E0F9120B97EF600C900026
:100CEB001DA3E0FAA3E0F9120B9790004EA3E0FAD4
:100CFB00A3E0F9120B97EF600E900020A3E0FAA38C
:100D0B00E0F9120B97D20BE512D394004016D512D3
:100D1B003030090C900023A3E0FAA3E0F9120B97F3
:100D2B00D20C801D900051A3E0FAA3E0F9120B97AF
:100D3B00EF600E900023A3E0FAA3E0F9120B97D219
:0D0D4B000C900005A3E0FAA3E0F9020B975D
:10103B0090003FA3E0FAA3E0F9120B97900042A3B4
:10104B00E0FAA3E0F9120B97900033A3E0FAA3E0C8
:10105B00F9120B97900008A3E0FAA3E0F9120B9793
:10106B00900030A3E0FAA3E0F9120B97EF600C901D
:10107B000011A3E0FAA3E0F9120B97900036A3E05E
:10108B00FAA3E0F9120B97EF600C900017A3E0FAAC
:10109B00A3E0F9120B97900048A3E0FAA3E0F91232
:1010AB000B97EF600C90001AA3E0FAA3E0F9120B78
:1010BB009730060EC206900026A3E0FAA3E0F912C1
:0310CB000B97225E
:1013DA0090000BA3E0FAA3E0F9120B9790003CA34C
:1013EA00E0FAA3E0F9120B97EF600C900014A3E067
:1013FA00FAA3E0F9120B97900057A3E0FAA3E0F9D9
:0F140A00120B9790005AA3E0FAA3E0F9020B9798
:1014C600AF11AE10AD0FAC0E900060120B7F900006
:1014D60064E514F0E4F511F510F50FF50EF514902A
:0B14E600000EA3E0FAA3E0F9020B9750
:10141900300705C20712115A300D05C20D120C6BA7
:10142900300505C20512103B300805C2081213DA4F
:10143900300105C2011214C6E5112401F511E43584
:0E14490010F510E4350FF50FE4350EF50E2208
:1011E5008B1A8A1B891CEFB40C0050709011F8F80B
:1011F50028287302121C02122102122602122B0247
:10120500123002123502123A02123F021244021241
:101215004902124E02125390000580359000088055
:101225003090000B802B90000E80269000118021BD
:10123500900017801C900014801790001A8012905F
:10124500001D800D900020800890002380039000F1
:0D12550026E51AF0A3E51BF0A3E51CF0222E
:071584007B017A007960226F
:030000000210CE1D
:0C10CE00787FE4F6D8FD75812902111529
:100A7400BB010CE58229F582E5833AF583E0225037
:100A840006E92582F8E622BBFE06E92582F8E22281
:0D0A9400E58229F582E5833AF583E493229B
:100AA100BC000BBE0029EF8DF084FFADF022E4CC39
:100AB100F875F008EF2FFFEE33FEEC33FCEE9DEC02
:100AC100984005FCEE9DFE0FD5F0E9E4CEFD22ED48
:100AD100F8F5F0EE8420D21CFEADF075F008EF2F92
:100AE100FFED33FD4007985006D5F0F222C398FD83
:050AF1000FD5F0EA2220
:100AF600C5F0F8A3E028F0C5F0F8E582158270028B
:060B06001583E038F02227
:100B0C00E88FF0A4CC8BF0A42CFCE98EF0A42CFC88
:100B1C008AF0EDA42CFCEA8EF0A4CDA8F08BF0A406
:100B2C002DCC3825F0FDE98FF0A42CCD35F0FCEB65
:100B3C008EF0A4FEA9F0EB8FF0A4CFC5F02ECD392A
:0F0B4C00FEE43CFCEAA42DCE35F0FDE43CFC2297
:10139600C2D5E830E70FB2D5E4C39BFBE49AFAE482
:1013A60099F9E498F8EC30E717B2D51213CC120B82
:1013B600D9E4C39BFBE49AFAE499F9E498F880032C
:1013C600120BD930D50DE4C39FFFE49EFEE49DFDCC
:0413D600E49CFC2275
:100B5B00E86010ECA2E713FCED13FDEE13FEEF13B0
:040B6B00FFD8F0229D
:100B6F00E493FC740193FD740293FE740393FF22CC
:0C0B7F00ECF0A3EDF0A3EEF0A3EFF022E9
:0C0B8B00A42582F582E5F03583F5832275
:060B97008A838982E473E9
:1010DA00021457E493A3F8E493A34003F68001F2C1
:1010EA0008DFF48029E493A3F85407240CC8C33317
:1010FA00C4540F4420C8834004F456800146F6DFE6
:10110A00E4800B0102040810204080900F94E47ED2
:10111A00019360BCA3FF543F30E509541FFEE493DA
:10112A00A360010ECF54C025E060A840B8E493A3A1
:10113A00FAE493A3F8E493A3C8C582C8CAC583CACC
:10114A00F0A3C8C582C8CAC583CADFE9DEE780BE84
:01103A0000B5
:100B9D0075F008758200EF2FFFEE33FECD33CDCC0F
:100BAD0033CCC58233C5829BED9AEC99E582984092
:100BBD000CF582EE9BFEED9AFDEC99FC0FD5F0D66F
:100BCD00E4CEFBE4CDFAE4CCF9A88222B800C1B999
:100BDD000059BA002DEC8BF084CFCECDFCE5F0CBD7
:100BED00F97818EF2FFFEE33FEED33FDEC33FCEB10
:100BFD0033FB10D703994004EB99FB0FD8E5E4F9CB
:100C0D00FA227818EF2FFFEE33FEED33FDEC33FCB7
:100C1D00C933C910D7059BE99A4007EC9BFCE99AAB
:100C2D00F90FD8E0E4C9FAE4CCFB2275F010EF2FF0
:100C3D00FFEE33FEED33FDCC33CCC833C810D707F0
:100C4D009BEC9AE899400AED9BFDEC9AFCE899F82B
:0E0C5D000FD5F0DAE4CDFBE4CCFAE4C8F922BE
:00000001FF
