:1019D70000A8C0003F065B4F666D7D077F6F00085C
:0E19E70040014148BF86DBCFE6EDFD87FFEFF4
:100F8700202023000004B000000960000012C00008
:100F970000258000004B00000096000000E10000E3
:0A0FA70001C200024CAA550122000D
:101987007FF97EF3E4FD0FEFAA0670010E14F582CE
:101997008A83E4936454FC744E2DF8A6040DBD07A6
:0719A700E57B007A00795195
:0119AE002216
:101156008F5E8E5D8D5C8C5BE55E643DFFE55BC0FE
:1011660004C005C006C007AF5E7810120998D00308
:10117600D002D001D000EF6BF55EEE6AF55DED6949
:10118600F55CEC68F55BAF5EAE5DAD5CFC780312BA
:1011960009BFE55E2FF55EE55D3EF55DE55C3DF577
:1011A6005CE55B3CF55BAF5EAE5DAD5CFC78041266
:1011B6000998EF655EF55EEE655DF55DED655CF5DE
:1011C6005CEC655BF55BAF5EAE5DAD5CFC7B2D7A82
:1011D600EB79D4782712087B8F5E8E5D8D5C8C5BF5
:1011E600780F120998EF655EF55EEE655DF55DEDCB
:1011F600655CF55CEC655BF55BAF5EAE5DAD5CFCBE
:0112060022C5
:10186100E4FF12175AEF6401702B7546AA754755AC
:10187100E5536554F548E5506552F549E54F655026
:10188100F54AE551654EF54B7B007A0079467D06B8
:061891007C0012192E225A
:100BF0009000C0E065486003020D57A3E0654960BE
:100C000003020D57A3E0654A6003020D57A3E06598
:100C10004B6003020D577555AA7556559000CDE0EF
:100C2000FF6549FE9000CFE0FD6EF557E54B6DFE88
:100C30009000CEE0FD6EF558E5486DFEEF6EF5597B
:100C4000A3E0FF654AFEEF6EF55AAF57E4FCFDFEE8
:100C50009000BA120A0E9000BAE0FCA3E0FDA3E0F7
:100C6000FEA3E0FF78081209BFA804A905AA06ABF5
:100C700007E4FCFDFEEB2558FFEE3AFEED39FDECF6
:100C800038FC9000BA120A0E9000BAE0FCA3E0FD16
:100C9000A3E0FEA3E0FF78081209BFA804A905AAF3
:100CA00006AB07E4FCFDFEEB2559FFEE3AFEED39FD
:100CB000FDEC38FC9000BA120A0E9000BAE0FCA3DA
:100CC000E0FDA3E0FEA3E0FF78081209BFA804A995
:100CD00005AA06AB07E4FCFDFEEB255AFFEE3AFE43
:100CE000ED39FDEC38FC9000BA120A0E9000BAE023
:100CF000FCA3E0FDA3E0FEA3E0FF1211569000BAB2
:100D0000120A0E9000BAE0FCA3E0FDA3E0FEA3E00F
:100D1000FF8F579000BAA3A3A3E078081209988F19
:100D2000589000BAE0FCA3E0FDA3E0FEA3E0FF784A
:100D3000101209988F599000BAE0FCA3E0FDA3E0DF
:100D4000FEA3E0FF7818120998E48F5AFB7A007925
:080D5000557D06FC12192E224C
:1013D6001219878B438A4489451209D2EF5407FFB5
:1013E6008F22EF25E025E02423F81209F2755F012C
:1013F6001212AFE52225E025E02423F81209F212A5
:1014060015F77F981218FD7BFF7A1879617F07120E
:10141600157A7BFF7A0B79F07F0A12157A756000D0
:1014260075610075624C7563007564027B017A0014
:1014360079BE7D127C001218977560007561007583
:10144600624C7563007564027B017A0079BE7D1279
:0D1456007C001218CA121A8512182380FBA0
:091A56008B88898C88898F8889AE
:100FB10052007A86860086860086860086860086AE
:090FC100860086860041006F09DC
:03002B00021A7F37
:061A7F0053BCEFD20C3253
:020A4400151D7E
:100A4600200C03020BEDC20C90006EE0B4090040CE
:100A560003020BCF900A61F8282873020AA8020A3B
:100A66007C020A8E020ABA020A7C020A8E020AD1A5
:100A7600020A7C020A8EAFBDEFFEADBE7C00E42DFD
:100A8600FFEC3E900070803CAFBDEFFEADBE7C003B
:100A9600E42DFFEC3E900072F0A3EFF07519010211
:100AA6000BD5AFBDEFFEADBE7C00E42DFFEC3E9056
:100AB60000748010AFBDEFFEADBE7C00E42DFFECF0
:100AC6003E900076F0A3EFF0020BD5AFBDEFFEAD82
:100AD600BE7C00E42DFFEC3E900078F0A3EFF09092
:100AE6000078E0FEA3E07807CEC313CE13D8F9A8AA
:100AF6001DF6C394065013A81DE675F003A4247AC8
:100B0600F582E43400F583E014F090006FE014F011
:100B16006003020BD57409F0A81DE4F6A81DE6FFD4
:100B2600C394064003020BD5EF75F003A4247AF5AF
:100B360082E43400F583E0C39480502AE6FF75F022
:100B460003A4247BF582E43400F583E0D39480404B
:100B560040EF75F003A4247CF582E43400F5837439
:100B660001F0F51A802BA81DE6FF75F003A4247B7F
:100B7600F582E43400F583E0C394805014EF75F0F9
:100B860003A4247CF582E43400F5837402F0751A1C
:100B960001A81DE6FF75F003A4247AF582E434006B
:100BA600F583E0FEEF75F003A4247BF582E43400C0
:100BB600F583EEF0E675F003A4247AF582E43400BA
:100BC600F5837486F006020B2290006E74FFF09097
:100BD600006EE0D39407400374FFF090006EE004CB
:070BE600F0901A5693F5BCD4
:030BED00051D22C1
:021A2400151D8E
:091A2600A81DA61AE4F51AE6FF5A
:031A2F00051D2270
:021A3200151D80
:091A3400A81DA619E4F519E6FF4E
:031A3D00051D2262
:1018FD008F9D75BC88439720D2AD90004574FFF045
:10190D00A3740AF0A37444F0A374FFF0A3741AF047
:10191D00A37424F0A374FFF0A3741AF0A37432F02F
:01192D002297
:071A71007B017A007970226D
:10175A00C3EF64809480403BD3EF64809485503318
:10176A00EFFD3395E0FC90007C75F003ED120A1A48
:10177A00EC75F003A42583F583E0FE90007C75F0F8
:10178A0003ED120A1AEC75F003A42583F583E4F03D
:05179A00AF06227F03F1
:01179F002227
:100FCA004100000A4100290A41006D0A040E00008E
:100FDA0000000113004600670000FFFF8FFFC10AEF
:100FEA00C105C108C101C10B60240005FF1A91FFA8
:100FFA001A91FF1A91FF1A91FF1A91FF1A91FF1A7B
:10100A0091FF1A91FF1A91FF1A91FF1A91FF1A91F3
:10101A006036002AFF1A91FF1A91FF1A8BFF1A9164
:10102A00FF1A8BFF1A91FF1A8BFF1A91FF1A91FF71
:10103A001A91FF1A8BFF1A8BFF1A8BFF1A8BFF1A52
:0A104A0091FF1A91FF1A91FF1A910D
:011A91002232
:031A8B007F0022B7
:10171300438E805389F07BE07A2879017800901911
:10172300D71209FE1217A0EFF404F58A7BE07A289A
:10173300790178009019D71209FE1217A0C3E49F0C
:10174300FFE49EFE74019DFDE49CFC78081209AB46
:071753008F8CD28CD2A92279
:03000B000216C119
:0416C100C0E0C0D0F5
:1016C500D5080A75084C300A020513D20AA203721E
:1016D500045036150AE50A7030850C0AD207300920
:1016E50017E50D6007150D438F01801D538FFEC251
:1016F500B5D51515C2098011050BE50BD394064028
:0917050008C203E5126002D206DD
:05170E00D0D0D0E03254
:10166E00300B47C20B9019D71209FE78101209AB36
:10167E008E1B8F1C900003E0FEA3E0FFE4FCFD7BBD
:10168E0019FAF9F812087BC006C007AE1BAF1CABE7
:10169E0007AA06E4F9F8D007D0061217A0780312AD
:1016AE0009AB900065EEF0A3EFF0900065E0FEA3AD
:0216BE00E0FF4B
:0116C0002207
:091A5F00900067E0FEA3E0FF2205
:091A6800900067EEF0A3EFF022FC
:1019F50090006BEEF0A3EFF0900069ECF0A3EDF032
:011A050022BE
:031A8E00C2B422BD
:03003B00021207A7
:10120700C0E0C083C082C0D075D000C004C005C094
:0312170006C00707
:10121A0030DF04C2DF807D30DA04C2DA807630D96A
:10122A003DC2D9AFFBEFFEADEB7C00E42DFFEC3EF7
:10123A0020000E900001F0A3EFF075DB11D20080C0
:10124A0053FE900001E0FCA3E0FDC3EF9DFFEE9C7E
:10125A00A3F0A3EFF075DB00C200D20B803630D8C2
:10126A0033C2D8900067E07002A3E06022B2B49063
:10127A000069E0FEA3E0F5EAEEF5FAA3E0FEA3E0DA
:10128A00FF90006AE02FF0900069E03EF08005C20E
:04129A00B453DAFE71
:10129E00D007D006D005D004D0D0D082D083D0E0F5
:0112AE00320D
:061A8500121713D2AF227C
:1014EF003004047F0180027F002009047E01800206
:1014FF007E00EE5F6074E514C395095068300236C4
:10150F00750D01E514131313541FAB16AA17A91861
:10151F00F582758300120800FFE514540704FEEFEF
:10152F00A806088002C333D8FC30D7057515038091
:10153F002F751501802AAB16AA17A91875F002E5A9
:10154F0014A4F58285F083120800F50DE51475F0EB
:10155F0002A429F9EA35F0FA900001120800F515F6
:0A156F000514D20922C204438F10B4
:01157900224F
:10108900900000E014F0701F740AF0D20590002956
:10109900E014F07012740AF0D20890006DE014F0B8
:1010A9007005740AF0D20190002AA3E0FAA3E0F9CE
:1010B900120A2690002DA3E0FAA3E0F9120A26905D
:1010C9000039A3E0FAA3E0F9120A26900045A3E04B
:1010D900FAA3E0F9120A26900054A3E0FAA3E0F972
:1010E900120A2690005DA3E0FAA3E0F9120A2690FD
:1010F9000005A3E0FAA3E0F9120A2690004BA3E049
:10110900FAA3E0F9120A26EF600C90001DA3E0FA99
:10111900A3E0F9120A2690004EA3E0FAA3E0F9121F
:101129000A26EF600C900020A3E0FAA3E0F9120A66
:1011390026900051A3E0FAA3E0F9120A26EF600C09
:0D114900900023A3E0FAA3E0F9120A262289
:1013430090003FA3E0FAA3E0F9120A26900042A31B
:10135300E0FAA3E0F9120A26900033A3E0FAA3E02F
:10136300F9120A26900008A3E0FAA3E0F9120A266C
:10137300900030A3E0FAA3E0F9120A26EF600C9084
:101383000011A3E0FAA3E0F9120A26900036A3E0C5
:10139300FAA3E0F9120A26EF600C900017A3E0FA13
:1013A300A3E0F9120A26900048A3E0FAA3E0F91299
:1013B3000A26EF600C90001AA3E0FAA3E0F9120AE0
:1013C3002630060EC206900026A3E0FAA3E0F91227
:0313D3000A2622C5
:1017E40090000BA3E0FAA3E0F9120A2690003CA3B0
:1017F400E0FAA3E0F9120A26EF600C900014A3E0CB
:10180400FAA3E0F9120A26900057A3E0FAA3E0F93C
:0F181400120A2690005AA3E0FAA3E0F9020A266E
:10195C00AF11AE10AD0FAC0E900060120A0E9000DD
:10196C0064E513F0E4F511F510F50FF50EF5139091
:0B197C00000EA3E0FAA3E0F9020A2627
:10182300300705C2071214EF300A05C20A121089E5
:10183300300505C205121343300805C2081217E428
:10184300300105C20112195CE5112401F511E435DB
:0E18530010F510E4350FF50FE4350EF50E22FA
:10157A008B5B8A5C895DEFB40C00507090158DF816
:10158A002828730215B10215B60215BB0215C0024E
:10159A0015C50215CA0215CF0215D40215D90215AE
:1015AA00DE0215E30215E8900005803590000880F8
:1015BA003090000B802B90000E8026900011802125
:1015CA00900017801C900014801790001A801290C7
:1015DA00001D800D90002080089000238003900059
:0D15EA0026E55BF0A3E55CF0A3E55DF022D3
:071A78007B017A0079602276
:1010540057008C04B00000000000000000000000F5
:0A1064000000000001000000000081
:03004300020D5853
:100D5800C0E0C0F0C083C082C0D075D000C000C061
:100D680001C002C003C004C005C006C007E59A3030
:100D7800E141539AFD900093E0FEA3E0FFC3900089
:100D880092E09F900091E09E501F90008EE0FBA3A0
:100D9800E0FAA3E0F9A3E475F00112086585F08292
:100DA800F583120800F59B800A900095E4F0300D59
:100DB80002C2B7E59A20E003020E5A539AFE900049
:100DC80096E0FBA3E0FAA3E0F990009BE0FEA3E025
:100DD800FFF5828E83E59B12082D9000A1E0FCA30D
:100DE800E0FDC3EF9DEE9C5046900099E0FEA3E025
:100DF800FFED9FEC9E503890009EE0FBA3E0FAA325
:100E0800E0F990009BE0FEA3E0FFF5828E831208D4
:100E180000FD900096E0FBA3E0FAA3E0F98F828E34
:100E2800831208006D600890009B74FFF0A3F09097
:100E3800009BE475F00112084FFED390009AE095EC
:100E4800F0900099E09E500A90009BE4F0A3F0A374
:100E580004F0D007D006D005D004D003D002D001CA
:0D0E6800D000D0D0D082D083D0F0D0E032C6
:021A0600151DAC
:0A1A080090009DE0A81DF6FFE4F039
:031A1200051D228D
:011A92002231
:1012AF008F5E8E5D8D5C8C5BE55F42BAE55FB4014E
:1012BF0006C2B7D20D801790005D74FFF0A3741AA9
:1012CF00F0A37492F0E4F5DBD290D291C20D759A2F
:1012DF0010E47B04FAF9F89019D71209FE120906E7
:1012EF00AB5EAA5DA95CA85B120906EFF404F5D703
:1012FF00E47B04FAF9F89019D71209FE120906AB2C
:10130F005EAA5DA95CA85B120906C3E49FFFE49E79
:10131F00FE74019DFDE49CFC78081209988FD6435A
:10132F008E1443AF0190005174FFF0A3741AF0A311
:04133F007406F0221E
:10189700900096EBF0A3EAF0A3E9F0A3ECF0A3ED38
:1018A700F09000A1E563F0A3E564F090009EE56089
:1018B700F0A3E561F0A3E562F0E490009BF0A3F0EC
:0318C700A3F02269
:10192E00900095E0702590008EEBF0A3EAF0A3E90D
:10193E00F0E4A3F0A3F0A3ECF0A3EDF0A37401F098
:0E194E00300D02D2B7439A027F02227F03229D
:0B1A4000900095E07002FF227F012261
:10106E005700A304B00000000000000000000000C4
:0A107E000000000001000000000067
:03002300020E7555
:100E7500C0E0C0F0C083C082C0D075D000C000C043
:100E850001C002C003C004C005C006C00730993BBD
:100E9500C2999000AAE0FEA3E0FFC39000A9E09FDD
:100EA5009000A8E09E501F9000A5E0FBA3E0FAA3E8
:100EB500E0F9A3E475F00112086585F082F5831267
:100EC5000800F59980059000ACE4F0209803020F26
:100ED5006CC2989000ADE0FBA3E0FAA3E0F99000A6
:100EE500B2E0FEA3E0FFF5828E83E59912082D900E
:100EF50000B8E0FCA3E0FDC3EF9DEE9C50469000DA
:100F0500B0E0FEA3E0FFED9FEC9E50389000B5E009
:100F1500FBA3E0FAA3E0F99000B2E0FEA3E0FFF541
:100F2500828E83120800FD9000ADE0FBA3E0FAA3DA
:100F3500E0F98F828E831208006D60089000B2740C
:100F4500FFF0A3F09000B2E475F00112084FFED354
:100F55009000B1E095F09000B0E09E500A9000B28C
:100F6500E4F0A3F0A304F0D007D006D005D004D058
:100F750003D002D001D000D0D0D082D083D0F0D021
:020F8500E03258
:021A1500151D9D
:0A1A17009000B4E0A81DF6FFE4F013
:031A2100051D227E
:1015F7008F5E8E5D8D5C8C5B759850438E40538EED
:10160700FE53890FE47B04FAF9F89019D71209FE03
:10161700120906AB5EAA5DA95CA85B120906EFF486
:1016270004F58BE47B04FAF9F89019D71209FE1236
:101637000906AB5EAA5DA95CA85B120906C3E49F15
:10164700FFE49EFE74019DFDE49CFC780812099856
:101657008F8DC2ABD28ED2AC90004E74FFF0A374C4
:071667001AF0A37415F02234
:1018CA009000ADEBF0A3EAF0A3E9F0A3ECF0A3EDEE
:1018DA00F09000B8E563F0A3E564F09000B5E56028
:1018EA00F0A3E561F0A3E562F0E49000B2F0A3F0A2
:0318FA00A3F02236
:1019AF009000ACE0701F9000A5EBF0A3EAF0A3E964
:1019BF00F0E4A3F0A3F0A3ECF0A3EDF0A37401F017
:0819CF00D2997F02227F03225E
:0B1A4B009000ACE07002FF227F01223F
:0300000002146384
:0C146300787FE4F6D8FD7581640214AABD
:10080000BB010CE58229F582E5833AF583E02250AD
:1008100006E92582F8E622BBFE06E92582F8E222F7
:0D082000E58229F582E5833AF583E4932211
:10082D00F8BB010DE58229F582E5833AF583E8F001
:10083D00225006E92582C8F622BBFE05E92582C8AD
:02084D00F22295
:10084F00C5F0F8A3E028F0C5F0F8E5821582700234
:06085F001583E038F022D1
:10086500A3F8E0C5F025F0F0E58215827002158346
:06087500E0C838F0E822A3
:10087B00E88FF0A4CC8BF0A42CFCE98EF0A42CFC1C
:10088B008AF0EDA42CFCEA8EF0A4CDA8F08BF0A49A
:10089B002DCC3825F0FDE98FF0A42CCD35F0FCEBF9
:1008AB008EF0A4FEA9F0EB8FF0A4CFC5F02ECD39BE
:0F08BB00FEE43CFCEAA42DCE35F0FDE43CFC222B
:1008CA0075F008758200EF2FFFEE33FECD33CDCCE5
:1008DA0033CCC58233C5829BED9AEC99E582984068
:1008EA000CF582EE9BFEED9AFDEC99FC0FD5F0D645
:1008FA00E4CEFBE4CDFAE4CCF9A88222B800C1B96F
:10090A000059BA002DEC8BF084CFCECDFCE5F0CBAC
:10091A00F97818EF2FFFEE33FEED33FDEC33FCEBE5
:10092A0033FB10D703994004EB99FB0FD8E5E4F9A0
:10093A00FA227818EF2FFFEE33FEED33FDEC33FC8D
:10094A00C933C910D7059BE99A4007EC9BFCE99A81
:10095A00F90FD8E0E4C9FAE4CCFB2275F010EF2FC6
:10096A00FFEE33FEED33FDCC33CCC833C810D707C6
:10097A009BEC9AE899400AED9BFDEC9AFCE899F801
:0E098A000FD5F0DAE4CDFBE4CCFAE4C8F92294
:1017A000C2D5E830E70FB2D5E4C39BFBE49AFAE474
:1017B00099F9E498F8EC30E717B2D51217D6120968
:1017C00006E4C39BFBE49AFAE499F9E498F88003F1
:1017D00012090630D50DE4C39FFFE49EFEE49DFD93
:0417E000E49CFC2267
:10099800E8600FECC313FCED13FDEE13FEEF13FF3D
:0309A800D8F12261
:1009AB00E86010ECA2E713FCED13FDEE13FEEF1362
:0409BB00FFD8F0224F
:1009BF00E8600FEFC333FFEE33FEED33FDEC33FC96
:0309CF00D8F1223A
:1009D200BB010789828A83020A2C5005E9F80209C1
:1009E200F2BBFE05E9F8020A3889828A830209FE0F
:0C09F200E6FC08E6FD08E6FE08E6FF2231
:1009FE00E493FC740193FD740293FE740393FF223F
:0C0A0E00ECF0A3EDF0A3EEF0A3EFF0225B
:0C0A1A00A42582F582E5F03583F58322E7
:060A26008A838982E4735B
:10146F000213D6E493A3F8E493A34003F68001F2AA
:10147F0008DFF48029E493A3F85407240CC8C3337E
:10148F00C4540F4420C8834004F456800146F6DF4D
:10149F00E4800B0102040810204080900F87E47E47
:1014AF00019360BCA3FF543F30E509541FFEE49342
:1014BF00A360010ECF54C025E060A840B8E493A309
:1014CF00FAE493A3F8E493A3C8C582C8CAC583CA34
:1014DF00F0A3C8C582C8CAC583CADFE9DEE780BEEC
:011088000067
:0C0A2C00E0FCA3E0FDA3E0FEA3E0FF223D
:0C0A3800E2FC08E2FD08E2FE08E2FF22FA
:00000001FF
