:10197F0000A8C0003F065B4F666D7D077F6F0008B4
:0E198F0040014148BF86DBCFE6EDFD87FFEF4C
:100E0C00202023000004B000000960000012C00084
:100E1C0000258000004B00000096000000E100005F
:0D0E2C0001C200016B00024CAA550122001A
:10190F007FF97EF3E4FD0FEFAA0670010E14F58246
:10191F008A83E4936454FC74602DF8A6040DBD070C
:07192F00E57B007A007963FB
:01193600228E
:10118F00E4FF121718EF64017031E56A5407FFEF9F
:10119F0025E025E02423F81209DF7572011212FAF7
:1011AF00E56A5407FFEF25E025E02423F81209DF55
:1011BF001215B5E56A5407FFE48F227F0512171841
:1011CF00EF6401703AE522B40805E4F522800205C8
:1011DF0022E52225E025E02423F81209DF757201AC
:1011EF001212FAE52225E025E02423F81209DF1276
:1011FF0015B57B007A00794D7D017C001218B67F02
:10120F0002121718EF64017039E522700575220874
:10121F0080021522E52225E025E02423F81209DFBC
:10122F007572011212FAE52225E025E02423F81247
:10123F0009DF1215B57B007A00794D7D017C001214
:03124F0018B622AC
:0D1A03007B007A00794E7D127C000218B63F
:0D1A10007B007A0079467D067C00021937C4
:1010C700E4F56CF56D12190F8B438A4489451209B3
:1010D700BF8F6A8E698D688C67E56A5407FF8F2218
:1010E700EF25E025E02423F81209DF7572011212BB
:1010F700FAE52225E025E02423F81209DF1215B5C9
:101107007F9812188512199D7D07E4FF121A3C7B00
:10111700FF7A11798F7F071215387BFF7A1A7903C7
:101127007F091215387BFF7A1A79107F0A12153852
:1011370075730075740075754C7576007577027B4D
:10114700007A00794E7D127C001218527573007573
:10115700740075754C7576007577027B007A007997
:10116700467D067C0012181F75710A75720A757321
:101177000A75740A75750A7B0A7D0A7F0A12195F58
:08118700121A711217E180FB3E
:091A33008B88898C88898F8889D1
:100E390052007A8686008686008686008686008627
:090E4900860086860041006F0955
:03002B00021A6551
:061A650053BCEFD20C326D
:020A3100151D91
:100A3300200C03020BDAC20C90006EE0B4090040F4
:100A430003020BBC900A4EF8282873020A95020A87
:100A530069020A7B020AA7020A69020A7B020ABE2A
:100A6300020A69020A7BAFBDEFFEADBE7C00E42D36
:100A7300FFEC3E900070803CAFBDEFFEADBE7C004E
:100A8300E42DFFEC3E900072F0A3EFF07519010224
:100A93000BC2AFBDEFFEADBE7C00E42DFFEC3E907C
:100AA30000748010AFBDEFFEADBE7C00E42DFFEC03
:100AB3003E900076F0A3EFF0020BC2AFBDEFFEADA8
:100AC300BE7C00E42DFFEC3E900078F0A3EFF090A5
:100AD3000078E0FEA3E07807CEC313CE13D8F9A8BD
:100AE3001DF6C394065013A81DE675F003A4247ADB
:100AF300F582E43400F583E014F090006FE014F025
:100B03006003020BC27409F0A81DE4F6A81DE6FFFA
:100B1300C394064003020BC2EF75F003A4247AF5D5
:100B230082E43400F583E0C39480502AE6FF75F035
:100B330003A4247BF582E43400F583E0D39480405E
:100B430040EF75F003A4247CF582E43400F583744C
:100B530001F0F51A802BA81DE6FF75F003A4247B92
:100B6300F582E43400F583E0C394805014EF75F00C
:100B730003A4247CF582E43400F5837402F0751A2F
:100B830001A81DE6FF75F003A4247AF582E434007E
:100B9300F583E0FEEF75F003A4247BF582E43400D3
:100BA300F583EEF0E675F003A4247AF582E43400CD
:100BB300F5837486F006020B0F90006E74FFF090BD
:100BC300006EE0D39407400374FFF090006EE004DE
:070BD300F0901A3393F5BC0A
:030BDA00051D22D4
:0219E700151DCC
:0919E900A81DA61AE4F51AE6FF98
:0319F200051D22AE
:0219F500151DBE
:0919F700A81DA619E4F519E6FF8C
:031A0000051D229F
:101885008F9D75BC88439720D2AD90004574FFF0BD
:10189500A3740AF0A37431F0A374FFF0A37419F0D4
:1018A500A374E7F0A374FFF0A37419F0A374F5F023
:0118B5002210
:071A57007B017A0079702287
:10171800C3EF64809480403BD3EF6480948550335A
:10172800EFFD3395E0FC90007C75F003ED120A079D
:10173800EC75F003A42583F583E0FE90007C75F03A
:1017480003ED120A07EC75F003A42583F583E4F092
:05175800AF06227F0333
:01175D002269
:100F1100E4F5809000C5E0FFB40800505F900F2514
:100F2100F8282873020F3D020F43020F49020F4FA9
:100F3100020F55020F5F020F69020F73C2A3C2A213
:100F41008016C2A3C2A2801AC2A3C2A2801EC2A3DB
:100F5100C2A28022C2A3D2A2C2A1C2A08020C2A3E7
:100F6100D2A2C2A1D2A08016C2A3D2A2D2A1C2A0F3
:100F7100800CC2A3D2A2D2A1D2A08002D2A3C3EF7D
:100F81006480948850299000C5E0FF3395E0FE7499
:100F9100BC2FF58274003EF583E0FF3395E0FE74CB
:100FA100832FF58274193EF583E493F580801E90BA
:100FB10000C5E0FFB408133395E0FE74BC2FF58241
:100FC10074003EF583E0F5808003E4F5809000BB7A
:100FD100E0FF9000C5E004FEF0D3EF6480F8EE641A
:100FE10080984014E0D36480948850047408F022FF
:090FF1009000BAE09000C5F02266
:10199D00E4F5937594FF5395F043960F90002A74D8
:0B19AD00FFF0A3740FF0A37411F022F0
:091A3C009000BAEFF0A3EDF022D6
:10195F009000BCEFF0A3EDF0A3EBF0A3E571F0A3C3
:10196F00E572F0A3E573F0A3E574F0A3E575F0223B
:061A6B009000C4EFF02220
:100E52004100000A4100290A41006D0A040E000007
:100E620000000113004600670000FFFF8FFFC10A68
:100E7200C105C108C101C10B60240005FF1A7DFF35
:100E82001A7DFF1A7DFF1A7DFF1A7DFF1A7DFF1A58
:100E92007DFF1A7DFF1A7DFF1A7DFF1A7DFF1A7DE5
:100EA2006036002AFF1A7DFF1A7DFF1A77FF1A7D2E
:100EB200FF1A77FF1A7DFF1A77FF1A7DFF1A7DFF4F
:100EC2001A7DFF1A77FF1A77FF1A77FF1A77FF1A30
:0A0ED2007DFF1A7DFF1A7DFF1A7DD7
:011A7D002246
:031A77007F0022CB
:1016D100438E805389F07BE07A2879017800901954
:1016E1007F1209EB12175EEFF404F58A7BE07A288A
:1016F1007901780090197F1209EB12175EC3E49FFC
:10170100FFE49EFE74019DFDE49CFC78081209AB88
:071711008F8CD28CD2A922BB
:03000B0002167F5B
:04167F00C0E0C0D037
:10168300D5080A75084C300A020513D20AA2037260
:10169300045036150AE50A7030850C0AD207300962
:1016A30017E50D6007150D438F01801D538FFEC293
:1016B300B5D51515C2098011050BE50BD39406406A
:0916C30008C203E5126002D20620
:0516CC00D0D0D0E03297
:10162C00300B47C20B90197F1209EB78101209ABE3
:10163C008E1B8F1C900003E0FEA3E0FFE4FCFD7BFF
:10164C0019FAF9F812087BC006C007AE1BAF1CAB29
:10165C0007AA06E4F9F8D007D00612175E78031231
:10166C0009AB900065EEF0A3EFF0900065E0FEA3EF
:02167C00E0FF8D
:01167E002249
:091A4500900067E0FEA3E0FF221F
:091A4E00900067EEF0A3EFF02216
:1019B80090006BEEF0A3EFF0900069ECF0A3EDF06F
:0119C80022FC
:031A7A00C2B422D1
:03003B000212525C
:10125200C0E0C083C082C0D075D000C004C005C049
:0312620006C007BC
:1012650030DF04C2DF807D30DA04C2DA807630D91F
:101275003DC2D9AFFBEFFEADEB7C00E42DFFEC3EAC
:1012850020000E900001F0A3EFF075DB11D2008075
:1012950053FE900001E0FCA3E0FDC3EF9DFFEE9C33
:1012A500A3F0A3EFF075DB00C200D20B803630D877
:1012B50033C2D8900067E07002A3E06022B2B49018
:1012C5000069E0FEA3E0F5EAEEF5FAA3E0FEA3E08F
:1012D500FF90006AE02FF0900069E03EF08005C2C3
:0412E500B453DAFE26
:1012E900D007D006D005D004D0D0D082D083D0E0AA
:0112F90032C2
:061A71001216D1D2AF22D3
:1014AD003004047F0180027F002009047E01800248
:1014BD007E00EE5F6074E514C39509506830023606
:1014CD00750D01E514131313541FAB16AA17A918A4
:1014DD00F582758300120800FFE514540704FEEF32
:1014ED00A806088002C333D8FC30D70575150380D4
:1014FD002F751501802AAB16AA17A91875F002E5EC
:10150D0014A4F58285F083120800F50DE51475F02D
:10151D0002A429F9EA35F0FA900001120800F51538
:0A152D000514D20922C204438F10F6
:011537002291
:100FFA00900000E014F0701F740AF0D205900029E6
:10100A00E014F07012740AF0D20890006DE014F047
:10101A007005740AF0D20190002AA3E0FAA3E0F95D
:10102A00120A1390002DA3E0FAA3E0F9120A139012
:10103A000039A3E0FAA3E0F9120A13900045A3E0ED
:10104A00FAA3E0F9120A13900054A3E0FAA3E0F914
:10105A00120A1390005DA3E0FAA3E0F9120A1390B2
:10106A000005A3E0FAA3E0F9120A1390004BA3E0EB
:10107A00FAA3E0F9120A13EF600C90001DA3E0FA3C
:10108A00A3E0F9120A1390004EA3E0FAA3E0F912C2
:10109A000A13EF600C900020A3E0FAA3E0F9120A09
:1010AA0013900051A3E0FAA3E0F9120A13EF600CBF
:0D10BA00900023A3E0FAA3E0F9120A13222C
:10138E0090003FA3E0FAA3E0F9120A13900042A3E3
:10139E00E0FAA3E0F9120A13900033A3E0FAA3E0F7
:1013AE00F9120A13900008A3E0FAA3E0F9120A1347
:1013BE00900030A3E0FAA3E0F9120A13EF600C904C
:1013CE000011A3E0FAA3E0F9120A13900036A3E08D
:1013DE00FAA3E0F9120A13EF600C900017A3E0FADB
:1013EE00A3E0F9120A13900048A3E0FAA3E0F91261
:1013FE000A13EF600C90001AA3E0FAA3E0F9120AA8
:10140E001330060EC206900026A3E0FAA3E0F912EE
:03141E000A13228C
:1017A20090000BA3E0FAA3E0F9120A1390003CA305
:1017B200E0FAA3E0F9120A13EF600C900014A3E020
:1017C200FAA3E0F9120A13900057A3E0FAA3E0F992
:0F17D200120A1390005AA3E0FAA3E0F9020A13D7
:1018E400AF11AE10AD0FAC0E9000601209FB90006A
:1018F40064E513F0E4F511F510F50FF50EF513900A
:0B190400000EA3E0FAA3E0F9020A13B2
:1017E100300705C2071214AD300A05C20A120FFAFA
:1017F100300505C20512138E300805C2081217A262
:10180100300105C2011218E4E5112401F511E43596
:0E18110010F510E4350FF50FE4350EF50E223C
:101538008B6E8A6F8970EFB40C00507090154BF861
:1015480028287302156F02157402157902157E0298
:10155800158302158802158D02159202159702153A
:101568009C0215A10215A690000580359000088000
:101578003090000B802B90000E8026900011802167
:10158800900017801C900014801790001A80129009
:10159800001D800D9000208008900023800390009B
:0D15A80026E56EF0A3E56FF0A3E570F022DC
:071A5E007B017A0079602290
:100EDC0057008C04B000000000000000000000006F
:0A0EEC0000000000010000000000FB
:03004300020BDDD0
:100BDD00C0E0C0F0C083C082C0D075D000C000C0DE
:100BED0001C002C003C004C005C006C007E59A30AD
:100BFD00E141539AFD900093E0FEA3E0FFC3900006
:100C0D0092E09F900091E09E501F90008EE0FBA31C
:100C1D00E0FAA3E0F9A3E475F00112086585F0820E
:100C2D00F583120800F59B800A900095E4F0300DD5
:100C3D0002C2B7E59A20E003020CDF539AFE900042
:100C4D0096E0FBA3E0FAA3E0F990009BE0FEA3E0A1
:100C5D00FFF5828E83E59B12082D9000A1E0FCA389
:100C6D00E0FDC3EF9DEE9C5046900099E0FEA3E0A1
:100C7D00FFED9FEC9E503890009EE0FBA3E0FAA3A1
:100C8D00E0F990009BE0FEA3E0FFF5828E83120851
:100C9D0000FD900096E0FBA3E0FAA3E0F98F828EB1
:100CAD00831208006D600890009B74FFF0A3F09014
:100CBD00009BE475F00112084FFED390009AE09569
:100CCD00F0900099E09E500A90009BE4F0A3F0A3F1
:100CDD0004F0D007D006D005D004D003D002D00147
:0D0CED00D000D0D0D082D083D0F0D0E03243
:0219C900151DEA
:0A19CB0090009DE0A81DF6FFE4F077
:0319D500051D22CB
:011A7E002245
:1012FA008F718E708D6F8C6EE57242BAE572B40191
:10130A0006C2B7D20D801790005D74FFF0A3741A5D
:10131A00F0A3747EF0E4F5DBD290D291C20D759AF7
:10132A0010E47B04FAF9F890197F1209EB12090606
:10133A00AB71AA70A96FA86E120906EFF404F5D76B
:10134A00E47B04FAF9F890197F1209EB120906AB4B
:10135A0071AA70A96FA86E120906C3E49FFFE49EE2
:10136A00FE74019DFDE49CFC78081209988FD6430F
:10137A008E1443AF0190005174FFF0A37419F0A3C7
:04138A0074C9F02210
:10181F00900096EBF0A3EAF0A3E9F0A3ECF0A3EDB0
:10182F00F09000A1E576F0A3E577F090009EE573C8
:10183F00F0A3E574F0A3E575F0E490009BF0A3F03E
:03184F00A3F022E1
:1018B600900095E0702590008EEBF0A3EAF0A3E986
:1018C600F0E4A3F0A3F0A3ECF0A3EDF0A37401F011
:0E18D600300D02D2B7439A027F02227F032216
:0B1A1D00900095E07002FF227F012284
:100EF6005700A304B000000000000000000000003E
:0A0F060000000000010000000000E0
:03002300020CFAD2
:100CFA00C0E0C0F0C083C082C0D075D000C000C0C0
:100D0A0001C002C003C004C005C006C00730993B39
:100D1A00C2999000AAE0FEA3E0FFC39000A9E09F59
:100D2A009000A8E09E501F9000A5E0FBA3E0FAA364
:100D3A00E0F9A3E475F00112086585F082F58312E3
:100D4A000800F59980059000ACE4F0209803020DA4
:100D5A00F1C2989000ADE0FBA3E0FAA3E0F990009D
:100D6A00B2E0FEA3E0FFF5828E83E59912082D908A
:100D7A0000B8E0FCA3E0FDC3EF9DEE9C5046900056
:100D8A00B0E0FEA3E0FFED9FEC9E50389000B5E086
:100D9A00FBA3E0FAA3E0F99000B2E0FEA3E0FFF5BE
:100DAA00828E83120800FD9000ADE0FBA3E0FAA357
:100DBA00E0F98F828E831208006D60089000B27489
:100DCA00FFF0A3F09000B2E475F00112084FFED3D1
:100DDA009000B1E095F09000B0E09E500A9000B209
:100DEA00E4F0A3F0A304F0D007D006D005D004D0D5
:100DFA0003D002D001D000D0D0D082D083D0F0D09E
:020E0A00E032D4
:0219D800151DDB
:0A19DA009000B4E0A81DF6FFE4F051
:0319E400051D22BC
:1015B5008F718E708D6F8C6E759850438E40538EE3
:1015C500FE53890FE47B04FAF9F890197F1209EBB1
:1015D500120906AB71AA70A96FA86E120906EFF47D
:1015E50004F58BE47B04FAF9F890197F1209EB12E4
:1015F5000906AB71AA70A96FA86E120906C3E49F0C
:10160500FFE49EFE74019DFDE49CFC780812099898
:101615008F8DC2ABD28ED2AC90004E74FFF0A37406
:0716250019F0A374D8F022B4
:101852009000ADEBF0A3EAF0A3E9F0A3ECF0A3ED66
:10186200F09000B8E576F0A3E577F09000B5E57367
:10187200F0A3E574F0A3E575F0E49000B2F0A3F0F4
:03188200A3F022AE
:101937009000ACE0701F9000A5EBF0A3EAF0A3E9DC
:10194700F0E4A3F0A3F0A3ECF0A3EDF0A37401F08F
:08195700D2997F02227F0322D6
:0B1A28009000ACE07002FF227F012262
:03000000021421C6
:0C142100787FE4F6D8FD7581770214682E
:10080000BB010CE58229F582E5833AF583E02250AD
:1008100006E92582F8E622BBFE06E92582F8E222F7
:0D082000E58229F582E5833AF583E4932211
:10082D00F8BB010DE58229F582E5833AF583E8F001
:10083D00225006E92582C8F622BBFE05E92582C8AD
:02084D00F22295
:10084F00C5F0F8A3E028F0C5F0F8E5821582700234
:06085F001583E038F022D1
:10086500A3F8E0C5F025F0F0E58215827002158346
:06087500E0C838F0E822A3
:10087B00E88FF0A4CC8BF0A42CFCE98EF0A42CFC1C
:10088B008AF0EDA42CFCEA8EF0A4CDA8F08BF0A49A
:10089B002DCC3825F0FDE98FF0A42CCD35F0FCEBF9
:1008AB008EF0A4FEA9F0EB8FF0A4CFC5F02ECD39BE
:0F08BB00FEE43CFCEAA42DCE35F0FDE43CFC222B
:1008CA0075F008758200EF2FFFEE33FECD33CDCCE5
:1008DA0033CCC58233C5829BED9AEC99E582984068
:1008EA000CF582EE9BFEED9AFDEC99FC0FD5F0D645
:1008FA00E4CEFBE4CDFAE4CCF9A88222B800C1B96F
:10090A000059BA002DEC8BF084CFCECDFCE5F0CBAC
:10091A00F97818EF2FFFEE33FEED33FDEC33FCEBE5
:10092A0033FB10D703994004EB99FB0FD8E5E4F9A0
:10093A00FA227818EF2FFFEE33FEED33FDEC33FC8D
:10094A00C933C910D7059BE99A4007EC9BFCE99A81
:10095A00F90FD8E0E4C9FAE4CCFB2275F010EF2FC6
:10096A00FFEE33FEED33FDCC33CCC833C810D707C6
:10097A009BEC9AE899400AED9BFDEC9AFCE899F801
:0E098A000FD5F0DAE4CDFBE4CCFAE4C8F92294
:10175E00C2D5E830E70FB2D5E4C39BFBE49AFAE4B6
:10176E0099F9E498F8EC30E717B2D51217941209EC
:10177E0006E4C39BFBE49AFAE499F9E498F8800333
:10178E0012090630D50DE4C39FFFE49EFEE49DFDD5
:04179E00E49CFC22A9
:10099800E8600FECC313FCED13FDEE13FEEF13FF3D
:0309A800D8F12261
:1009AB00E86010ECA2E713FCED13FDEE13FEEF1362
:0409BB00FFD8F0224F
:1009BF00BB010789828A83020A195005E9F80209E7
:1009CF00DFBBFE05E9F8020A2589828A830209EB5B
:0C09DF00E6FC08E6FD08E6FE08E6FF2244
:1009EB00E493FC740193FD740293FE740393FF2252
:0C09FB00ECF0A3EDF0A3EEF0A3EFF0226F
:0C0A0700A42582F582E5F03583F58322FA
:060A13008A838982E4736E
:10142D000210C7E493A3F8E493A34003F68001F2FE
:10143D0008DFF48029E493A3F85407240CC8C333C0
:10144D00C4540F4420C8834004F456800146F6DF8F
:10145D00E4800B0102040810204080900E0CE47E05
:10146D00019360BCA3FF543F30E509541FFEE49384
:10147D00A360010ECF54C025E060A840B8E493A34B
:10148D00FAE493A3F8E493A3C8C582C8CAC583CA76
:10149D00F0A3C8C582C8CAC583CADFE9DEE780BE2E
:010F100000E0
:0C0A1900E0FCA3E0FDA3E0FEA3E0FF2250
:0C0A2500E2FC08E2FD08E2FE08E2FF220D
:00000001FF
