:1004AD00E4F59575960FF5937594FFF5B175B280DA
:0104BD00221C
:0F04CE00D2A8D2AAD288D28AC2B8C2BAD2AF22DA
:100480001204AD1204CE120033120464120046129C
:0704900002861201C280F593
:030003000204DD17
:0304DD00D2043214
:030013000204E004
:0304E000D206320F
:03001600011000D6
:10046400758E14759A5075AF01D2AF75B50175BA12
:0C0474000175D6FE75D7E0D202C2B72297
:1001C200200303020285E516251725182519651A4D
:1001D2006003020283E51765217022E51864087046
:1001E2001C300617D2B7FF74162FF8E6F59B2002D3
:1001F200FDD2020FBF05F0C2B78002D201E517702F
:100202006BE51864037065E5196521705F30042E93
:1002120075115A852112751303852214E5112512D1
:1002220025132514F515D2B7E4FF74112FF8E6F55E
:100232009B2002FDD2020FBF05F0C2B7802ED20072
:1002420075115A85211275130375146FE511251264
:1002520025132514F515D2B7E4FF74112FF8E6F52E
:100262009B2002FDD2020FBF05F0C2B7E517701145
:10027200E518B4010CE5197008C206C204C201C235
:0302820000C203B4
:010285002256
:0300430002033382
:07033300C0E0C0D075D00846
:10033A00E59A20E0030203C9E59B645A6009E510C7
:10034A007005539AFE8078E59BB45A06E510700250
:10035A008000AF10051074162FF8A69B539AFEE57D
:10036A00106405705AE5162517FFE433FE7C00EF8A
:10037A002518FFEC3EFEEF2519FFEC3EFEE51AB507
:10038A000F0AECB50E06F510D20380337F017416FE
:10039A002FF8E6B45A1FC374059FF510AE0FEEC3CB
:1003AA009405501174162EF8E6FDC3EE9F2416F834
:1003BA00A60D0E80E90FBF05D5BF0503751000E530
:0903CA009A30E105539AFDC202CC
:0503D300D0D0D0E032A3
:100019000537000000000010233F065B4F666D7D29
:09002900077F6F777C395E797165
:10003300759D80E4F5BD75BCEFF5977F020204BEA4
:10049700E5BC30E4FB53BCEFAFBDEF54E0C41354ED
:0504A70007FF43BC0843
:0104AC00222D
:100046001204978F36E536640770030201C1AD3698
:10005600ED64037028E536640760071204978F364F
:1000660080F320050BD2057437253CF87680800D89
:10007600C2057E057837E4F608DEFC7E05ED6401F0
:10008600702C300529E536640760071204978F3611
:1000960080F3053CE53CB40503E4F53C7E05783782
:1000A600E4F608DEFC7E057437253CF87680ED64C0
:1000B60004702C300529E536640760071204978F13
:1000C6003680F3153CE53CB4FF03753C047E0578A9
:1000D60037E4F608DEFC7E057437253CF87680EDBD
:1000E6006405706B300568E536640760071204978F
:1000F6008F3680F3E53C14601C14602814603414B9
:10010600604024047049200646053DE53D640A70BA
:100116003EF53D803A200637053EE53E640A702FDF
:10012600F53E802B2004280533E53364027020F564
:1001360033801C2004190534E534B40A12E4F5347E
:10014600800D20040A0535E535B40A03E4F535EDDE
:1001560064027067300564E5366407600712049729
:100166008F3680F3E53C14601B146026146031144E
:10017600603C24047045200642153DE53DF4703B85
:10018600753D0922200634153EE53EF4702D753E78
:1001960009222004261533E533F4701F7533012236
:1001A6002004181534E534B4FF11753409222004EF
:0B01B6000A1535E535B4FF0375350967
:0101C100221B
:10028600C2A3E53D75F00AA4253EF521E53475F0D7
:100296000AA4FFE53375F064A42F2535F522E4F5AD
:1002A600A07423253DF8E62537F5807F021204BEAB
:1002B60075A0017423253EF8E62538F5807F0212E5
:1002C60004BE75A00574232533F8E62539F5807F2D
:1002D600021204BE75A00674232534F8E6253AF505
:1002E600807F021204BE75A00774232535F8E62523
:1002F6003BF5807F021204BE30060AD2A3758080C9
:100306007F021204BE30040AD2A37580017F021256
:1003160004BE30010AD2A37580107F021204BE30DB
:0D032600000AD2A37580087F021204BE22D7
:0B0006000000007F0B7EBEDEFEDFFC72
:0100110022CC
:0204BE00AD0788
:0D04C000E4FCECC39D50061200060C80F514
:0104CD00220C
:030000000203D820
:0C03D800787FE4F6D8FD75813E02041F1A
:1003E400020480E493A3F8E493A34003F68001F2AB
:1003F40008DFF48029E493A3F85407240CC8C3331A
:10040400C4540F4420C8834004F456800146F6DFE8
:10041400E4800B0102040810204080900016E47E62
:10042400019360BCA3FF543F30E509541FFEE493DD
:10043400A360010ECF54C025E060A840B8E493A3A4
:10044400FAE493A3F8E493A3C8C582C8CAC583CACF
:10045400F0A3C8C582C8CAC583CADFE9DEE780BE87
:0100320000CD
:00000001FF
