:1012630000A8C0003F065B4F666D7D077F6F0008D7
:0E12730040014148BF86DBCFE6EDFD87FFEF6F
:0C0B5600011B00011A00C10F021C00006E
:101244001212FFBF0104D20F80107D147C007FE8CE
:0F1254007E03120ECFC20F751B0FAF1B02130EBE
:10117D00200F2C7D147C007FE87E03120ECFE51D21
:10118D006401451C7002D20F051AE51AC394034081
:10119D000EE4F51AE51B13F51B751C00751D01AF4B
:0411AD001B02130E00
:1010BD0012129E1212817BFF7A1279447F05120E55
:1010CD00527BFF7A11797D7F02120E527D07E4FF6C
:1010DD001212E475250A75260A75270A75280A75F0
:1010ED00290A7B0A7D0A7F0A121224121314121187
:0310FD003F80FB36
:0411DC00152B152B8F
:1011E0001212EDA82BA60608A607A82BE6FE08E615
:0F11F000FF4E600BEF24FFFFEE34FFFE1212F6EE
:0511FF00052B052B2269
:1012040053B1EF43B21012131DE4F5D975DA49D284
:10121400DE90003F74FFF0A37411F0A374DCF0229D
:080ECF008E228F238C248D2557
:100ED7001212EDEF4E7066AF25AE241212F6C3E57F
:100EE70023940AE5229400404BE47B18FAF9F89022
:100EF700126312095E1208B8C006C007AE22AF23FC
:100F0700AB07AA06E4F9F8D007D0061208B8AB0772
:100F1700AA06AFF9EFFEADE97C00E42DFFEC3ECF6A
:100F27002BCF3AAD07FCAF03AE021212B9D2D843AA
:0F0F3700DA01800612131D53DAFE7F02227F03B8
:010F46002288
:0C12D8001212EDEF4E7002FF227F012287
:100A6D00E4F580900079E0FFB40800505F900A81B2
:100A7D00F8282873020A99020A9F020AA5020AABF6
:100A8D00020AB1020ABB020AC5020ACFC2A3C2A260
:100A9D008016C2A3C2A2801AC2A3C2A2801EC2A384
:100AAD00C2A28022C2A3D2A2C2A1C2A08020C2A390
:100ABD00D2A2C2A1D2A08016C2A3D2A2D2A1C2A09C
:100ACD00800CC2A3D2A2D2A1D2A08002D2A3C3EF26
:100ADD00648094885029900079E0FF3395E0FE748E
:100AED00702FF58274003EF583E0FF3395E0FE74C0
:100AFD00672FF58274123EF583E493F580801E9086
:100B0D000079E0FFB408133395E0FE74702FF58281
:100B1D0074003EF583E0F5808003E4F58090006F6E
:100B2D00E0FF900079E004FEF0D3EF6480F8EE640E
:100B3D0080984014E0D36480948850047408F022A7
:090B4D0090006EE0900079F022A6
:10129E00E4F5937594FF5395F043960F90002A74DE
:0B12AE00FFF0A3740AF0A3746DF0229F
:0912E40090006EEFF0A3EDF02282
:10122400900070EFF0A3EDF0A3EBF0A3E525F0A39D
:10123400E526F0A3E527F0A3E528F0A3E529F022AD
:06130E00900078EFF022D0
:100B6200012A0041007D0041007A0541007B83415A
:030B7200007C8381
:1010330020920690007BE014F090007AE014F070A8
:10104300347405F0A3E0FFC39480500EA3E09480B2
:101053004018A37401F0F52A801090007CE0C3943B
:10106300805007A37402F0752A0190007CEFF09082
:05107300007B7483F016
:011078002255
:0212CA00152BE2
:0912CC00A82BA62AE4F52AE6FF8E
:0312D500052B22C4
:1012810090003674FFF0A37412F0A374CAF09000BA
:0D1291003374FFF0A37410F0A37433F02247
:0712FF0090007DE0FFE4F028
:0113060022C4
:100B75004100000A4100290A41006D0A040E0000E7
:100B850000000114004600670000FFFF8FFFC10D44
:100B9500C105C108C101C10E60240005FF1320FF76
:100BA5001320FF1320FF1320FF1320FF1320FF1333
:100BB50020FF1320FF1320FF1320FF1320FF132016
:100BC5006036002AFF1320FF1320FF131AFF13209E
:100BD500FF131AFF1320FF131AFF1320FF1320FF23
:100BE5001320FF131AFF131AFF131AFF131AFF130B
:0A0BF50020FF1320FF1320FF132040
:0113200022AA
:03131A007F00222F
:100FEC00438E805389F07BE07A2879017800901247
:100FFC006312095E121079EFF404F58A7BE07A280B
:10100C007901780090126312095E121079C3E49F83
:10101C00FFE49EFE74019DFDE49CFC780812094AD5
:07102C008F8CD28CD2A922A7
:03000B00020F9A47
:040F9A00C0E0C0D023
:100F9E00D5080A75084C300D020514D20DA2037245
:100FAE00045036150AE50A7030850C0AD207300A4D
:100FBE0017E50D6007150D438F01801D538FFEC27F
:100FCE00B5D51615C20A8011050BE50BD394064054
:090FDE0008C203E5136002D2060B
:050FE700D0D0D0E03283
:100F4700300E47C20E90126312095E781012094ADA
:100F57008E1E8F1F900003E0FEA3E0FFE4FCFD7BE5
:100F670019FAF9F812082DC006C007AE1EAF1FAB5D
:100F770007AA06E4F9F8D007D00612107978031209
:100F8700094A900065EEF0A3EFF0900065E0FEA33C
:020F9700E0FF79
:010F99002235
:0912ED00900067E0FEA3E0FF227F
:0912F600900067EEF0A3EFF02276
:1012B90090006BEEF0A3EFF0900069ECF0A3EDF075
:0112C9002202
:03131D00C2B42235
:03003B00020C00B4
:100C0000C0E0C083C082C0D075D000C004C005C0A1
:030C100006C00714
:100C130030DF04C2DF807D30DA04C2DA807630D977
:100C23003DC2D9AFFBEFFEADEB7C00E42DFFEC3E04
:100C330020000E900001F0A3EFF075DB11D20080CD
:100C430053FE900001E0FCA3E0FDC3EF9DFFEE9C8B
:100C5300A3F0A3EFF075DB00C200D20E803630D8CC
:100C630033C2D8900067E07002A3E06022B2B49070
:100C73000069E0FEA3E0F5EAEEF5FAA3E0FEA3E0E7
:100C8300FF90006AE02FF0900069E03EF08005C21B
:040C9300B453DAFE7E
:100C9700D007D006D005D004D0D0D082D083D0E002
:010CA700321A
:06131400120FECD2AF2223
:100DC7003004047F0180027F00200A047E01800234
:100DD7007E00EE5F6074E515C395095068300236F2
:100DE700750D01E515131313541FAB17AA18A9198D
:100DF700F582758300120800FFE515540704FEEF1E
:100E0700A806088002C333D8FC30D70575160380BF
:100E17002F751601802AAB17AA18A91975F002E5D4
:100E270015A4F58285F083120800F50DE51575F018
:100E370002A429F9EA35F0FA900001120800F51624
:0A0E47000515D20A22C204438F10E1
:010E5100227E
:10098000900000E014F0701F740AF0D20590002966
:10099000E014F07012740AF0D20890006DE014F0C8
:1009A0007005740AF0D20190002AA3E0FAA3E0F9DE
:1009B00012097A90002DA3E0FAA3E0F912097A90C7
:1009C0000039A3E0FAA3E0F912097A900045A3E008
:1009D000FAA3E0F912097A900054A3E0FAA3E0F92F
:1009E00012097A90005DA3E0FAA3E0F912097A9067
:1009F000004BA3E0FAA3E0F912097AEF600C900033
:100A00001DA3E0FAA3E0F912097A90004EA3E0FAE0
:100A1000A3E0F912097AEF600E900020A3E0FAA398
:100A2000E0F912097AD20BE512D394004016D512E0
:100A30003030090C900023A3E0FAA3E0F912097A00
:100A4000D20C801D900051A3E0FAA3E0F912097ABC
:100A5000EF600E900023A3E0FAA3E0F912097AD226
:0D0A60000C900005A3E0FAA3E0F902097A6A
:100CA80090003FA3E0FAA3E0F912097A900042A36A
:100CB800E0FAA3E0F912097A900033A3E0FAA3E07E
:100CC800F912097A900008A3E0FAA3E0F912097A68
:100CD800900030A3E0FAA3E0F912097AEF600C90D3
:100CE8000011A3E0FAA3E0F912097A900036A3E014
:100CF800FAA3E0F912097AEF600C900017A3E0FA62
:100D0800A3E0F912097A900048A3E0FAA3E0F912E7
:100D1800097AEF600C90001AA3E0FAA3E0F912092F
:100D28007A30060EC206900026A3E0FAA3E0F91274
:030D3800097A2213
:1011000090000BA3E0FAA3E0F912097A90003CA347
:10111000E0FAA3E0F912097AEF600C900014A3E062
:10112000FAA3E0F912097A900057A3E0FAA3E0F9D4
:0F11300012097A90005AA3E0FAA3E0F902097AB3
:1011B100AF11AE10AD0FAC0E90006012096E900031
:1011C10064E514F0E4F511F510F50FF50EF5149042
:0B11D100000EA3E0FAA3E0F902097A87
:10113F00300705C207120DC7300D05C20D12098009
:10114F00300505C205120CA8300805C2081211009F
:10115F00300105C2011211B1E5112401F511E43579
:0E116F0010F510E4350FF50FE4350EF50E22E5
:100E52008B228A238924EFB40C005070900E65F81F
:100E6200282873020E89020E8E020E93020E980239
:100E72000E9D020EA2020EA7020EAC020EB1020ECF
:100E8200B6020EBB020EC0900005803590000880AD
:100E92003090000B802B90000E8026900011802154
:100EA200900017801C900014801790001A801290F6
:100EB200001D800D90002080089000238003900088
:0D0EC20026E522F0A3E523F0A3E524F022AD
:071307007B017A00796022EE
:03000000020D3BB3
:0C0D3B00787FE4F6D8FD75812B020D8254
:10080000BB010CE58229F582E5833AF583E02250AD
:1008100006E92582F8E622BBFE06E92582F8E222F7
:0D082000E58229F582E5833AF583E4932211
:10082D00E88FF0A4CC8BF0A42CFCE98EF0A42CFC6A
:10083D008AF0EDA42CFCEA8EF0A4CDA8F08BF0A4E8
:10084D002DCC3825F0FDE98FF0A42CCD35F0FCEB47
:10085D008EF0A4FEA9F0EB8FF0A4CFC5F02ECD390C
:0F086D00FEE43CFCEAA42DCE35F0FDE43CFC2279
:10087C0075F008758200EF2FFFEE33FECD33CDCC33
:10088C0033CCC58233C5829BED9AEC99E5829840B6
:10089C000CF582EE9BFEED9AFDEC99FC0FD5F0D693
:1008AC00E4CEFBE4CDFAE4CCF9A88222B800C1B9BD
:1008BC000059BA002DEC8BF084CFCECDFCE5F0CBFB
:1008CC00F97818EF2FFFEE33FEED33FDEC33FCEB34
:1008DC0033FB10D703994004EB99FB0FD8E5E4F9EF
:1008EC00FA227818EF2FFFEE33FEED33FDEC33FCDC
:1008FC00C933C910D7059BE99A4007EC9BFCE99AD0
:10090C00F90FD8E0E4C9FAE4CCFB2275F010EF2F14
:10091C00FFEE33FEED33FDCC33CCC833C810D70714
:10092C009BEC9AE899400AED9BFDEC9AFCE899F84F
:0E093C000FD5F0DAE4CDFBE4CCFAE4C8F922E2
:10107900C2D5E830E70FB2D5E4C39BFBE49AFAE4A2
:1010890099F9E498F8EC30E717B2D51210AF1208C5
:10109900B8E4C39BFBE49AFAE499F9E498F880036D
:1010A9001208B830D50DE4C39FFFE49EFEE49DFD10
:0410B900E49CFC2295
:10094A00E86010ECA2E713FCED13FDEE13FEEF13C3
:04095A00FFD8F022B0
:10095E00E493FC740193FD740293FE740393FF22DF
:0C096E00ECF0A3EDF0A3EEF0A3EFF022FC
:06097A008A838982E47308
:100D47000210BDE493A3F8E493A34003F68001F2F5
:100D570008DFF48029E493A3F85407240CC8C333AD
:100D6700C4540F4420C8834004F456800146F6DF7C
:100D7700E4800B0102040810204080900B56E47EAB
:100D8700019360BCA3FF543F30E509541FFEE49371
:100D9700A360010ECF54C025E060A840B8E493A338
:100DA700FAE493A3F8E493A3C8C582C8CAC583CA63
:100DB700F0A3C8C582C8CAC583CADFE9DEE780BE1B
:010BFF0000F5
:00000001FF
