:100A6B0000A8C0003F065B4F666D7D077F6F0008D7
:0E0A7B0040014148BF86DBCFE6EDFD87FFEF6F
:10077F00120B03EF6063E51AB455047F0180027F0B
:10078F0000E519B4AA047E0180027E00EE5FFFE54A
:10079F001BB481047E0180027E00EE5F603B7525F5
:1007AF000A75260AE51C75F06484F527E51C75F0BB
:1007BF000A8475F00A8485F028E51C75F00A848593
:1007CF00F0297B0A7D0A7F0A120A4B751E667B0091
:0A07DF007A0079197D0612099D22A7
:1008D500120AA57D07E4FF120AD075250A75260AB6
:1008E50075270C75280C75290C7B0A7D0A7F0A1261
:1008F5000A4B7F2B120AC07BFF7A07797F7F0B1289
:10090500068B7B007A0079197D06120AEB120AFA2A
:050915001209DC80FB6B
:1001F800E4F580900079E0FFB40800505F90020CAD
:10020800F828287302022402022A02023002023667
:1002180002023C02024602025002025AC2A3C2A2D1
:100228008016C2A3C2A2801AC2A3C2A2801EC2A301
:10023800C2A28022C2A3D2A2C2A1C2A08020C2A30D
:10024800D2A2C2A1D2A08016C2A3D2A2D2A1C2A019
:10025800800CC2A3D2A2D2A1D2A08002D2A3C3EFA3
:10026800648094885029900079E0FF3395E0FE740B
:10027800702FF58274003EF583E0FF3395E0FE743D
:100288006F2FF582740A3EF583E493F580801E9003
:100298000079E0FFB408133395E0FE74702FF582FF
:1002A80074003EF583E0F5808003E4F58090006FEC
:1002B800E0FF900079E004FEF0D3EF6480F8EE648C
:1002C80080984014E0D36480948850047408F02225
:0902D80090006EE0900079F02224
:100AA500E4F5937594FF5395F043960F90002A74DF
:0B0AB500FFF0A37401F0A374F8F0221E
:090AD00090006EEFF0A3EDF0229E
:100A4B00900070EFF0A3EDF0A3EBF0A3E525F0A37E
:100A5B00E526F0A3E527F0A3E528F0A3E529F0228E
:060AF400900078EFF022F3
:100600004100000A4100290A41006D0A040E000061
:1006100000000113004600670000FFFF8FFFC10AC2
:10062000C105C108C101C10B60240005FF000AFF1C
:10063000000AFF000AFF000AFF000AFF000AFF008D
:100640000AFF000AFF000AFF000AFF000AFF000A73
:100650006036002AFF000AFF000AFF004FFF000A71
:10066000FF004FFF000AFF004FFF000AFF000AFFD4
:10067000000AFF004FFF004FFF004FFF004FFF0039
:0A0680000AFF000AFF000AFF000A4B
:01000A0022D3
:03004F007F00220D
:10088E00438E805389F07BE07A2879017800900AB4
:10089E006B12010812091AEFF404F58A7BE07A282C
:1008AE0079017800900A6B12010812091AC3E49FAD
:1008BE00FFE49EFE74019DFDE49CFC78081200F49A
:0708CE008F8CD28CD2A9220D
:03000B0002083CAC
:04083C00C0E0C0D088
:10084000D5080A75084C300A020513D20AA20372B1
:10085000045036150AE50A7030850C0AD2073009B3
:1008600017E50D6007150D438F01801D538FFEC2E4
:10087000B5D51515C2098011050BE50BD3940640BB
:0908800008C203E5126002D20671
:05088900D0D0D0E032E8
:1007E900300B47C20B900A6B12010878101200F403
:1007F9008E308F31900003E0FEA3E0FFE4FCFD7B27
:1008090019FAF9F81200A5C006C007AE30AF31AB2E
:1008190007AA06E4F9F8D007D00612091A780312D4
:1008290000F4900065EEF0A3EFF0900065E0FEA300
:02083900E0FFDE
:01083B00229A
:090AD900900067E0FEA3E0FF229B
:090AE200900067EEF0A3EFF02292
:10003E0090006BEEF0A3EFF0900069ECF0A3EDF002
:01004E00228F
:030B0000C2B4225A
:03003B000203AE0F
:1003AE00C0E0C083C082C0D075D000C004C005C0FC
:0303BE0006C0076F
:1003C10030DF04C2DF807D30DA04C2DA807630D9D2
:1003D1003DC2D9AFFBEFFEADEB7C00E42DFFEC3E5F
:1003E10020000E900001F0A3EFF075DB11D2008028
:1003F10053FE900001E0FCA3E0FDC3EF9DFFEE9CE6
:10040100A3F0A3EFF075DB00C200D20B803630D829
:1004110033C2D8900067E07002A3E06022B2B490CA
:100421000069E0FEA3E0F5EAEEF5FAA3E0FEA3E041
:10043100FF90006AE02FF0900069E03EF08005C275
:04044100B453DAFED8
:10044500D007D006D005D004D0D0D082D083D0E05C
:010455003274
:060AFA0012088ED2AF22AB
:100575003004047F0180027F002009047E0180028F
:100585007E00EE5F6074E514C3950950683002364D
:10059500750D01E514131313541FAB16AA17A918EB
:1005A500F582758300120056FFE514540704FEEF2B
:1005B500A806088002C333D8FC30D705751503801B
:1005C5002F751501802AAB16AA17A91875F002E533
:1005D50014A4F58285F083120056F50DE51475F027
:1005E50002A429F9EA35F0FA900001120056F51532
:0A05F5000514D20922C204438F103E
:0105FF0022D9
:1002E100900000E014F0701F740AF0D2059000290C
:1002F100E014F07012740AF0D20890006DE014F06E
:100301007005740AF0D20190002AA3E0FAA3E0F983
:1003110012012490002DA3E0FAA3E0F91201249028
:100321000039A3E0FAA3E0F9120124900045A3E00B
:10033100FAA3E0F9120124900054A3E0FAA3E0F932
:1003410012012490005DA3E0FAA3E0F912012490C8
:100351000005A3E0FAA3E0F912012490004BA3E009
:10036100FAA3E0F9120124EF600C90001DA3E0FA5A
:10037100A3E0F912012490004EA3E0FAA3E0F912E0
:100381000124EF600C900020A3E0FAA3E0F9120130
:1003910024900051A3E0FAA3E0F9120124EF600CCC
:0D03A100900023A3E0FAA3E0F9120124224A
:1004560090003FA3E0FAA3E0F9120124900042A322
:10046600E0FAA3E0F9120124900033A3E0FAA3E036
:10047600F9120124900008A3E0FAA3E0F91201247E
:10048600900030A3E0FAA3E0F9120124EF600C908B
:100496000011A3E0FAA3E0F9120124900036A3E0CC
:1004A600FAA3E0F9120124EF600C900017A3E0FA1A
:1004B600A3E0F9120124900048A3E0FAA3E0F912A0
:1004C6000124EF600C90001AA3E0FAA3E0F91201F0
:1004D6002430060EC206900026A3E0FAA3E0F91225
:0304E600012422CC
:10095E0090000BA3E0FAA3E0F912012490003CA34F
:10096E00E0FAA3E0F9120124EF600C900014A3E06A
:10097E00FAA3E0F9120124900057A3E0FAA3E0F9DC
:0F098E0012012490005AA3E0FAA3E0F902012419
:10000E00AF11AE10AD0FAC0E900060120118900043
:10001E0064E513F0E4F511F510F50FF50EF51390F8
:0B002E00000EA3E0FAA3E0F902012499
:1009DC00300705C207120575300A05C20A1202E17A
:1009EC00300505C205120456300805C20812095E0E
:1009FC00300105C20112000EE5112401F511E43598
:0E0A0C0010F510E4350FF50FE4350EF50E224F
:10068B008B228A238924EFB40C00507090069EF8BD
:10069B002828730206C20206C70206CC0206D10244
:1006AB0006D60206DB0206E00206E50206EA0206B1
:1006BB00EF0206F40206F9900005803590000880E1
:1006CB003090000B802B90000E8026900011802123
:1006DB00900017801C900014801790001A801290C5
:1006EB00001D800D90002080089000238003900057
:0D06FB0026E522F0A3E523F0A3E524F0227C
:070003007B017A0079602205
:100AC00053B1DF43B220C2B5C2098F0C438F10224D
:0300530002070899
:10070800C0E0C083C082C0D075D000C000C001C0A6
:0307180002C00319
:10071B00200313D203752B08751200752A00E50C04
:10072B00C313F50A803AE50BC394014031E52A2542
:10073B00E0F52AE50BC394034002052AD52B21E5EE
:10074B0012C3952C501A752B08AB2DAA2EA92F85E9
:10075B001282758300E52A12008305128002C20300
:03076B00750B000B
:10076E00D003D002D001D000D0D0D082D083D0E040
:01077E003248
:090AEB008B2D8A2E892F8D2C22FF
:030B0300AF12220C
:100A1A002003047F0180027F002009047E018002F6
:100A2A007E00EE5F60188B168A178918EDC313F5DE
:100A3A0009C202E4F514538FEFD2047F02227F0326
:010A4A002289
:10099D002003047F0180027F002009047E01800274
:1009AD007E00EE5F6026538FEF750D10751508D222
:1009BD0009438F018B168A178918ED75F008A40469
:0F09CD00F509D202E4F514D2047F02227F03223F
:100A89002003047F0180027F002009047E01800287
:0C0A99007E00EE5F60037F00227F0122E0
:030000000204E90E
:0C04E900787FE4F6D8FD75813102053003
:10005600BB010CE58229F582E5833AF583E022505F
:1000660006E92582F8E622BBFE06E92582F8E222A9
:0D007600E58229F582E5833AF583E49322C3
:10008300F8BB010DE58229F582E5833AF583E8F0B3
:10009300225006E92582C8F622BBFE05E92582C85F
:0200A300F22247
:1000A500E88FF0A4CC8BF0A42CFCE98EF0A42CFCFA
:1000B5008AF0EDA42CFCEA8EF0A4CDA8F08BF0A478
:1000C5002DCC3825F0FDE98FF0A42CCD35F0FCEBD7
:1000D5008EF0A4FEA9F0EB8FF0A4CFC5F02ECD399C
:0F00E500FEE43CFCEAA42DCE35F0FDE43CFC2209
:10091A00C2D5E830E70FB2D5E4C39BFBE49AFAE408
:10092A0099F9E498F8EC30E717B2D5120950120198
:10093A0066E4C39BFBE49AFAE499F9E498F8800325
:10094A0012016630D50DE4C39FFFE49EFEE49DFDCF
:04095A00E49CFC22FB
:1000F400E86010ECA2E713FCED13FDEE13FEEF1322
:04010400FFD8F0220E
:10010800E493FC740193FD740293FE740393FF223D
:0C011800ECF0A3EDF0A3EEF0A3EFF0225A
:060124008A838982E47366
:1004F5000208D5E493A3F8E493A34003F68001F240
:1005050008DFF48029E493A3F85407240CC8C33307
:10051500C4540F4420C8834004F456800146F6DFD6
:10052500E4800B0102040810204080900600E47E60
:10053500019360BCA3FF543F30E509541FFEE493CB
:10054500A360010ECF54C025E060A840B8E493A392
:10055500FAE493A3F8E493A3C8C582C8CAC583CABD
:10056500F0A3C8C582C8CAC583CADFE9DEE780BE75
:01068A00006F
:10012A0075F008758200EF2FFFEE33FECD33CDCC8C
:10013A0033CCC58233C5829BED9AEC99E58298400F
:10014A000CF582EE9BFEED9AFDEC99FC0FD5F0D6EC
:10015A00E4CEFBE4CDFAE4CCF9A88222B800C1B916
:10016A000059BA002DEC8BF084CFCECDFCE5F0CB54
:10017A00F97818EF2FFFEE33FEED33FDEC33FCEB8D
:10018A0033FB10D703994004EB99FB0FD8E5E4F948
:10019A00FA227818EF2FFFEE33FEED33FDEC33FC35
:1001AA00C933C910D7059BE99A4007EC9BFCE99A29
:1001BA00F90FD8E0E4C9FAE4CCFB2275F010EF2F6E
:1001CA00FFEE33FEED33FDCC33CCC833C810D7076E
:1001DA009BEC9AE899400AED9BFDEC9AFCE899F8A9
:0E01EA000FD5F0DAE4CDFBE4CCFAE4C8F9223C
:00000001FF
