:100D830000A8C0003F065B4F666D7D077F6F0008BC
:0E0D930040014148BF86DBCFE6EDFD87FFEF54
:0306BA00012B32DF
:100A1200E52C6011752632AB2B7D32E4FF1207EE16
:100A220075220C800F752632E4FB7D32AF2B120744
:100A3200EE75220AE52B75F06484FF7005AF22750E
:100A4200220AE52B75F00A8475F00A84AEF0E52BD4
:100A520075F00A84ADF075260A8522278F288E2923
:0B0A62008D2A7B0A7D0A7F0A020D63CB
:100C3600E4FF120BF6BF010DE52BD3945F5006744B
:100C460005252BF52B7F01120BF6BF010CE52C6059
:100C560005E4F52C8003752C167F02120BF6BF01F6
:0F0C66000DE52BC39405400674FB252BF52B22BF
:100CF200120DA1120DBE7F01120D2D7D07E4FF1210
:100D02000E087BFF7A0C79367F041209957BFF7AF5
:100D12000C79367F071209957BFF7A0A79127F02D6
:0B0D2200120995120E32120CB480FB77
:10044200E4F580900079E0FFB40800505F90045614
:10045200F828287302046E02047402047A020480EB
:1004620002048602049002049A0204A4C2A3C2A255
:100472008016C2A3C2A2801AC2A3C2A2801EC2A3B5
:10048200C2A28022C2A3D2A2C2A1C2A08020C2A3C1
:10049200D2A2C2A1D2A08016C2A3D2A2D2A1C2A0CD
:1004A200800CC2A3D2A2D2A1D2A08002D2A3C3EF57
:1004B200648094885029900079E0FF3395E0FE74BF
:1004C200702FF58274003EF583E0FF3395E0FE74F1
:1004D200872FF582740D3EF583E493F580801E909C
:1004E2000079E0FFB408133395E0FE74702FF582B3
:1004F20074003EF583E0F5808003E4F58090006FA0
:10050200E0FF900079E004FEF0D3EF6480F8EE643F
:1005120080984014E0D36480948850047408F022D8
:0905220090006EE0900079F022D7
:100DBE00E4F5937594FF5395F043960F90002A74C3
:0B0DCE00FFF0A37404F0A37442F022B5
:090E080090006EEFF0A3EDF02262
:100D6300900070EFF0A3EDF0A3EBF0A3E526F0A362
:100D7300E527F0A3E528F0A3E529F0A3E52AF0226F
:060E2C00900078EFF022B7
:1006BD00012F004900869494009494009494004175
:0306CD0000851E87
:02023200153085
:1002340020B206900086E014F020B306900089E016
:1002440014F020970690008CE014F0900085E014E0
:10025400F06003020352741EF0A830E4F6A830E6FE
:10026400FFC3648094834003020352EF3395E0FE9E
:1002740090008675F003EF120152EE75F003A42589
:1002840083F583E0C39480503990008775F003EFC1
:10029400120152EE75F003A42583F583E0D3948014
:1002A400405AE6FF3395E0FE90008875F003EF12A4
:1002B4000152EE75F003A42583F5837401F0F52F44
:1002C400803AA830E6FF3395E0FE90008775F0038E
:1002D400EF120152EE75F003A42583F583E0C39475
:1002E40080501990008875F003EF120152EE75F0FA
:1002F40003A42583F5837402F0752F01A830E6FF6B
:10030400FD3395E0FC90008675F003ED120152EC8C
:1003140075F003A42583F583E0FE90008775F00350
:10032400ED120152EC75F003A42583F583EEF0EF92
:100334003395E0FE90008675F003EF120152EE75DE
:0E034400F003A42583F5837494F00602026191
:0303520005302251
:020DFA001530B2
:090DFC00A830A62FE4F52FE6FF54
:030E050005302293
:100DA10090003074FFF0A3740DF0A374FAF090007A
:0D0DB1002D74FFF0A37402F0A37432F02241
:100BF600EF600764016003BF0233EFFD3395E0FC4D
:100C060090008875F003ED120152EC75F003A425EF
:100C160083F583E0FE90008875F003ED120152EC37
:0F0C260075F003A42583F583E4F0AF06227F0366
:010C3500229C
:1006D0004100000A4100290A41006D0A040E000091
:1006E00000000114004600670000FFFF8FFFC10DEE
:1006F000C105C108C101C10E60240005FF000AFF49
:10070000000AFF000AFF000AFF000AFF000AFF00BC
:100710000AFF000AFF000AFF000AFF000AFF000AA2
:100720006036002AFF000AFF000AFF0E38FF000AA9
:10073000FF0E38FF000AFF0E38FF000AFF000AFF15
:10074000000AFF0E38FF0E38FF0E38FF0E38FF008C
:0A0750000AFF000AFF000AFF000A7A
:01000A0022D3
:030E38007F002216
:100B6B00438E805389F07BE07A2879017800900DD1
:100B7B0083120136120BB2EFF404F58A7BE07A286C
:100B8B0079017800900D83120136120BB2C3E49FEA
:100B9B00FFE49EFE74019DFDE49CFC780812010F9E
:070BAB008F8CD28CD2A9222D
:03000B00020B19CC
:040B1900C0E0C0D0A8
:100B1D00D5080A75084C300D020514D20DA20372CA
:100B2D00045036150AE50A7030850C0AD207300AD2
:100B3D0017E50D6007150D438F01801D538FFEC204
:100B4D00B5D51615C20A8011050BE50BD3940640D9
:090B5D0008C203E5136002D20690
:050B6600D0D0D0E03208
:100AC600300E47C20E900D83120136781012010FB8
:100AD6008E2D8F2E900003E0FEA3E0FFE4FCFD7B4D
:100AE60019FAF9F81200C0C006C007AE2DAF2EAB3A
:100AF60007AA06E4F9F8D007D006120BB27803125B
:100B0600010F900065EEF0A3EFF0900065E0FEA304
:020B1600E0FFFE
:010B180022BA
:090E1100900067E0FEA3E0FF225F
:090E1A00900067EEF0A3EFF02256
:100DD90090006BEEF0A3EFF0900069ECF0A3EDF05A
:010DE90022E7
:030E3B00C2B4221C
:03003B00020612A8
:10061200C0E0C083C082C0D075D000C004C005C095
:0306220006C00708
:1006250030DF04C2DF807D30DA04C2DA807630D96B
:100635003DC2D9AFFBEFFEADEB7C00E42DFFEC3EF8
:1006450020000E900001F0A3EFF075DB11D20080C1
:1006550053FE900001E0FCA3E0FDC3EF9DFFEE9C7F
:10066500A3F0A3EFF075DB00C200D20E803630D8C0
:1006750033C2D8900067E07002A3E06022B2B49064
:100685000069E0FEA3E0F5EAEEF5FAA3E0FEA3E0DB
:10069500FF90006AE02FF0900069E03EF08005C20F
:0406A500B453DAFE72
:1006A900D007D006D005D004D0D0D082D083D0E0F6
:0106B900320E
:060E3200120B6BD2AF228F
:10090A003004047F0180027F00200A047E018002F5
:10091A007E00EE5F6074E515C395095068300236B3
:10092A00750D01E515131313541FAB17AA18A9194E
:10093A00F58275830012003EFFE515540704FEEFA9
:10094A00A806088002C333D8FC30D7057516038081
:10095A002F751601802AAB17AA18A91975F002E596
:10096A0015A4F58285F08312003EF50DE51575F0A4
:10097A0002A429F9EA35F0FA90000112003EF516B0
:0A098A000515D20A22C204438F10A3
:010994002240
:10035500900000E014F0701F740AF0D20590002997
:10036500E014F07012740AF0D20890006DE014F0F9
:100375007005740AF0D20190002AA3E0FAA3E0F90F
:1003850012015E90002DA3E0FAA3E0F912015E9040
:100395000039A3E0FAA3E0F912015E900045A3E05D
:1003A500FAA3E0F912015E900054A3E0FAA3E0F984
:1003B50012015E90005DA3E0FAA3E0F912015E90E0
:1003C500004BA3E0FAA3E0F912015EEF600C900088
:1003D5001DA3E0FAA3E0F912015E90004EA3E0FA36
:1003E500A3E0F912015EEF600E900020A3E0FAA3EE
:1003F500E0F912015ED20BE512D394004016D51236
:100405003030090C900023A3E0FAA3E0F912015E55
:10041500D20C801D900051A3E0FAA3E0F912015E11
:10042500EF600E900023A3E0FAA3E0F912015ED27B
:0D0435000C900005A3E0FAA3E0F902015EBF
:10075B0090003FA3E0FAA3E0F912015E900042A3E0
:10076B00E0FAA3E0F912015E900033A3E0FAA3E0F4
:10077B00F912015E900008A3E0FAA3E0F912015E02
:10078B00900030A3E0FAA3E0F912015EEF600C9049
:10079B000011A3E0FAA3E0F912015E900036A3E08A
:1007AB00FAA3E0F912015EEF600C900017A3E0FAD8
:1007BB00A3E0F912015E900048A3E0FAA3E0F9125E
:1007CB00015EEF600C90001AA3E0FAA3E0F91201AE
:1007DB005E30060EC206900026A3E0FAA3E0F912E3
:0307EB00015E228A
:100C750090000BA3E0FAA3E0F912015E90003CA3FB
:100C8500E0FAA3E0F912015EEF600C900014A3E016
:100C9500FAA3E0F912015E900057A3E0FAA3E0F988
:0F0CA50012015E90005AA3E0FAA3E0F902015E8B
:10000E00AF11AE10AD0FAC0E900060120146900015
:10001E0064E514F0E4F511F510F50FF50EF51490F6
:0B002E00000EA3E0FAA3E0F902015E5F
:100CB400300705C20712090A300D05C20D1203558B
:100CC400300505C20512075B300805C208120C7511
:100CD400300105C20112000EE5112401F511E435BD
:0E0CE40010F510E4350FF50FE4350EF50E2275
:100995008B228A238924EFB40C0050709009A8F8A3
:1009A5002828730209CC0209D10209D60209DB0203
:1009B50009E00209E50209EA0209EF0209F4020960
:1009C500F90209FE020A03900005803590000880AF
:1009D5003090000B802B90000E8026900011802116
:1009E500900017801C900014801790001A801290B8
:1009F500001D800D9000208008900023800390004A
:0D0A050026E522F0A3E523F0A3E524F0226E
:070003007B017A0079602205
:1007EE008B25AA077C007E037FE812006B900081A8
:1007FE00EEF0A3EFF0E526FD7C007E037FE812000D
:10080E006BA3EEF0A3EFF0AF02AB07E4FAF9F890AA
:10081E000081E0FEA3E0FFE4FCFD1200C0EF2432F5
:10082E00FFE43EFEE43DFDE43CFCE47B64FAF9F8B3
:10083E00120BB290007BEEF0A3EFF0AF25AB07E406
:10084E00FAF9F8900083E0FEA3E0FFE4FCFD12004D
:10085E00C0EF2432FFE43EFEE43DFDE43CFCE47BCD
:10086E0064FAF9F8120BB290007DEEF0A3EFF022CD
:100A6D00E4F525F524F523F522F526D291AF25AE33
:100A7D0024AD23AC2278011201238F258E248D23E2
:100A8D008C2200C291309015E4FAF9F8EF2401F5AB
:100A9D0025EA3EF524E93DF523E83CF5220526E55A
:100AAD0026B418C700D2910000C291AF25AE24AD77
:080ABD0023AC22780812010F9E
:010AC500220E
:090E230090007FE0FEA3E0FF2235
:0F0DEA0090007FE0FEA3E0FFE490007FF0A3F015
:010DF90022D7
:10052B0090007AE0700F30900122120A6D90007FDC
:10053B00EEF0A3EFF090007AE0FF64017062051B10
:10054B00E51B7002051AFDD3900082E09D9000819F
:10055B00E0951A5005E4F51AF51BD390007CE09555
:10056B001B90007BE0951A4004D2908002C290054C
:10057B001DE51D7002051CFDD3900084E09D9000CD
:10058B0083E0951C5005E4F51CF51DD390007EE02F
:10059B00951D90007DE0951C4004D2918002C29184
:1005AB00EF6402703E2090047F0180027F00E51E05
:1005BB0060047E0180027E00EE5F6021309110901E
:1005CB000080E004F0701690007FE004F0800E9045
:1005DB000080E024FFF090007FE034FFF0A290E475
:1005EB0033F51E90007AE0B4031CE51F7002D29124
:1005FB00E51FB40105C29175DB21051FE51FC394EF
:06060B00C84003E4F51FE6
:0106110022C6
:100D2D0090007AEFF07004C2918002D29190007A17
:100D3D00E0B40310E5A254CFF5A2E4F5D975DB01BB
:100D4D00D2DE8003E4F5DB90005D74FFF0A3740543
:060D5D00F0A3742BF0224C
:0300000002087E75
:0C087E00787FE4F6D8FD7581300208C5D3
:10003E00BB010CE58229F582E5833AF583E0225077
:10004E0006E92582F8E622BBFE06E92582F8E222C1
:0D005E00E58229F582E5833AF583E49322DB
:10006B00BC000BBE0029EF8DF084FFADF022E4CC79
:10007B00F875F008EF2FFFEE33FEEC33FCEE9DEC42
:10008B00984005FCEE9DFE0FD5F0E9E4CEFD22ED88
:10009B00F8F5F0EE8420D21CFEADF075F008EF2FD2
:1000AB00FFED33FD4007985006D5F0F222C398FDC3
:0500BB000FD5F0EA2260
:1000C000E88FF0A4CC8BF0A42CFCE98EF0A42CFCDF
:1000D0008AF0EDA42CFCEA8EF0A4CDA8F08BF0A45D
:1000E0002DCC3825F0FDE98FF0A42CCD35F0FCEBBC
:1000F0008EF0A4FEA9F0EB8FF0A4CFC5F02ECD3981
:0F010000FEE43CFCEAA42DCE35F0FDE43CFC22ED
:100BB200C2D5E830E70FB2D5E4C39BFBE49AFAE46E
:100BC20099F9E498F8EC30E717B2D5120BE8120164
:100BD200A0E4C39BFBE49AFAE499F9E498F8800351
:100BE2001201A030D50DE4C39FFFE49EFEE49DFDFB
:040BF200E49CFC2261
:10010F00E86010ECA2E713FCED13FDEE13FEEF1306
:04011F00FFD8F022F3
:10012300E8600FEFC333FFEE33FEED33FDEC33FC3A
:03013300D8F122DE
:10013600E493FC740193FD740293FE740393FF220F
:0C014600ECF0A3EDF0A3EEF0A3EFF0222C
:0C015200A42582F582E5F03583F58322B8
:06015E008A838982E4732C
:10088A00020CF2E493A3F8E493A34003F68001F286
:10089A0008DFF48029E493A3F85407240CC8C3336F
:1008AA00C4540F4420C8834004F456800146F6DF3E
:1008BA00E4800B01020408102040809006BAE47E0E
:1008CA00019360BCA3FF543F30E509541FFEE49333
:1008DA00A360010ECF54C025E060A840B8E493A3FA
:1008EA00FAE493A3F8E493A3C8C582C8CAC583CA25
:1008FA00F0A3C8C582C8CAC583CADFE9DEE780BEDD
:01075A00009E
:1001640075F008758200EF2FFFEE33FECD33CDCC52
:1001740033CCC58233C5829BED9AEC99E5829840D5
:100184000CF582EE9BFEED9AFDEC99FC0FD5F0D6B2
:10019400E4CEFBE4CDFAE4CCF9A88222B800C1B9DC
:1001A4000059BA002DEC8BF084CFCECDFCE5F0CB1A
:1001B400F97818EF2FFFEE33FEED33FDEC33FCEB53
:1001C40033FB10D703994004EB99FB0FD8E5E4F90E
:1001D400FA227818EF2FFFEE33FEED33FDEC33FCFB
:1001E400C933C910D7059BE99A4007EC9BFCE99AEF
:1001F400F90FD8E0E4C9FAE4CCFB2275F010EF2F34
:10020400FFEE33FEED33FDCC33CCC833C810D70733
:100214009BEC9AE899400AED9BFDEC9AFCE899F86E
:0E0224000FD5F0DAE4CDFBE4CCFAE4C8F92201
:00000001FF
