:03000000020E5D90
:0C0E5D00787FE4F6D8FD758127020EA412
:100FA100012500012700010800010900020A0000D3
:100FB1000126000F123F065B4F666D7D077F6F773D
:040FC1007C395E71A8
:100F3800750F8E750EE3750D8A750C3FE4F5937584
:100F480094FFF595759608C2A3758911D2AFD2ABF7
:100F5800758D15758B9FD28E75D7FF75D6FE438E0E
:090F68001043AF04120F7180FB6D
:03001B00020D656E
:100D6500C0E0C0F0C083C082C0D075D000C000C054
:100D750001C002C003C004C005C006C0070526D3D4
:100D8500E5266480948A5003020E42C2ABC28E757A
:100D95008D15758B9FD2917F027E00120FCEC29169
:100DA5003090FDD28C2090FDC28CAC8CE4120AA848
:100DB500E4FBFA798078431208F8C004C005C00640
:100DC500C007AC8AE4120AA8D003D002D001D00033
:100DD500120807C004C005C006C007E4FFFE7DAACF
:100DE5007C43AB0FAA0EA90DA80C1208F8D003D0AE
:100DF50002D001D0001208F8E4FBFA79FA7844121F
:100E05000A018F248E238D228C21120ADC8E108FED
:100E150011C3E511941EE5109400400BD3E5119420
:100E2500A0E510940F4006751000751100120EE92B
:100E3500758C00758A00D2ABD28E752600D007D08E
:100E450006D005D004D003D002D001D000D0D0D038
:080E550082D083D0F0D0E0321E
:03006300020BC0CD
:100BC000C0E0C0D0D3E5119420E51094034005C2E5
:100BD000B4020D60D3E51194F4E5109401402805AA
:100BE0000BE50B7002050AD39440E50A941F5003ED
:100BF000020D60B2B4E50B64347004E50A64216050
:100C000003020D60020D0CD3E511942CE510940144
:100C10004039050BE50B7002050AD3947CE50A9474
:100C2000154006750A00750B00D3E50B9488E50A9C
:100C300094135003020D60B2B4E50B647C7004E5BC
:100C40000A64156003020D60020D0CD3E51194C80F
:100C5000E51094004038050BE50B7002050AD394AB
:100C6000ACE50A940D4006750A00750B00D3E50B40
:100C700094B8E50A940B5003020D60B2B4E50B641E
:100C8000AC7004E50A640D6003020D60807ED3E55C
:100C9000119464E51094004038050BE50B700205D3
:100CA0000AD394DCE50A94054006750A00750B002A
:100CB000D3E50B94E8E50A94035003020D60B2B447
:100CC000E50B64DC7004E50A64056003020D6080D6
:100CD0003BD3E5119446E51094004036050BE50B37
:100CE0007002050AD394E8E50A94034006750A00E9
:100CF000750B00D3E50B94F4E50A94014062B2B49D
:100D0000E50B64E87004E50A64037054F50AF50B1A
:100D1000804ED3E5119428E51094004036050BE58C
:100D20000B7002050AD39458E50A94024006750A2E
:100D300000750B00D3E50B9464E50A94004021B2E2
:100D4000B4E50BB4581AE50AB40215750A00750B20
:100D500000800DC3E5119428E51094005002B2B450
:050D6000D0D0D0E0320C
:100EE900AE10AF117C037DE8120B5D8F25AE10AFFC
:100EF900117C037DE8120B5D7E007F64CFCDCFCEE0
:100F0900CCCE120B5D8F27AE10AF117C007D641221
:100F19000B5D7E007F0ACFCDCFCECCCE120B5D8F7D
:0F0F290008AE10AF117C007D0A120B5D8D0922FE
:100F710075A00474122525120FC675A005741225DB
:100F810027120FC675A00674122508120FC675A088
:100F91000774122509F8E6F5807F037E00020FCE63
:080FC600F8E6F5807F037E00D0
:100FCE00EF1FAA0670011E4A60107C007D32ED1DD7
:0A0FDE00AA0470011C4A60E880F4C8
:010FE80022E6
:10080000020B48E86480F8E933E83360110460F0D3
:10081000ED33EC337009E8FCE9FDEAFEEBFF22045E
:1008200060DED3EB9FEA9EE99DE8C2E78CF0C2F759
:1008300095F0400CE8CCF8E9CDF9EACEFAEBCFFB25
:10084000120B1385D0F05804700320D5B3E8047060
:10085000075002B2D5020B5292D5EC0460F7E4CCFB
:10086000C0E0C398F8603B94186008400DD0E0FBEE
:10087000020B2AE4FBFAC9FC8028E830E406E4C94C
:10088000FBE4CAFCE830E305E4C9CACBFCE8540742
:100890006010F8C3E913F9EA13FAEB13FBEC13FC4D
:1008A000D8F130F52FC3E49CFCEF9BFFEE9AFEEDF0
:1008B00099FDD0E0FBEF4E4D4C701222DB03020B92
:1008C0004FEC2CFCEF33FFEE33FEED33FDED30E764
:1008D000EB020B2AEF2BFFEE3AFEED39FDD0E0FBE9
:1008E00050130BBB0003020B52ED13FDEE13FEEF92
:0808F00013FFEC13FC020B2ABC
:1008F800EC4D6011E8497017ED33EC3304600DE4FA
:10090800FCFFFEFD22E933E8330470F8020B4812BD
:100918000B1358046009E4CC2481500628500902BE
:100928000B52284003020B4FC0E0EB4A7044B980D9
:1009380006D0E0FB020B3EEF4E701CBD8008EBFFBB
:10094800EAFEE9FD80EBE98DF0A4FEE5F00209E19D
:10095800E9CDF9EAFEEBFFEF89F0A4FCE5F0CE89DA
:10096800F0A42EFFE435F0CD89F0A42DFEE435F097
:100978008067EF4E7005BD80D780C3EF8BF0A4ACC5
:10098800F0EE8BF0A42CFCE435F0F8EF8AF0A42C00
:10099800E5F038FCE433CB8DF0A42CFCE5F03BF813
:1009A800EE8AF0A42CFCE5F038F8E433CF89F0A403
:1009B8002CFCE5F038CF3400CE89F0A42FFFE5F009
:1009C8003EFEE433C98DF0A42EFEE5F039CD8AF061
:1009D800A42FFFE5F03EFEE43DFD33D0E0FB5007D9
:1009E8000BBB000F020B52EC2CFCEF33FFEE33FE77
:0609F800ED33FD020B2AA5
:1009FE00020B52EC5D046005E859047003020B48CB
:100A0E00120B13580460F6EC4860F2EC7004FDFE15
:100A1E00FF22C860DB2481C85009C39860025006CB
:100A2E00020B4F9850CAF582E9294B4A7005AB82EA
:100A3E00020B3E75F0007C1A7880C3EF9BEE9AEDA8
:100A4E0099400DC3EF9BFFEE9AFEED99FDE842F043
:100A5E00DC23ACF0D0E0FFD0E0FED0E0FDAB822096
:100A6E00E7101BEB60BAEC2CFCEF33FFEE33FEED20
:100A7E0033FD020B2AE803F830E705C0F075F000ED
:100A8E00EF2FFFEE33FEED33FD40B830E7C280AA04
:100A9E0075F020800E75F010800575F0087D007ED3
:100AAE00007F003392D530D503120BB2EC334010D9
:100ABE00EF33FFEE33FEED33FDEC33FCD5F0ED22DC
:0E0ACE00E5F0247EA2D513CC92E7CDCEFF2218
:100ADC00EDD2E7CD33EC3392D524814006E4FFFE12
:100AEC00FDFC22FCE4CFCECDCC24E0501174FF8071
:100AFC00EDC3CC13CCCD13CDCE13CECF13CF04700E
:070B0C00F030D5DE020BB250
:100B1300E9D2E7C933E833F892D5EDD2E7CD33EC28
:070B230033FC5002B2D522A1
:100B2A00EC30E7100FBF000C0EBE00080DBD00042C
:100B3A000BEB6014A2D5EB13FCED92E7FD2274FFD8
:100B4A00FCFDFEFF22E480F8A2D574FF13FC7D8031
:030B5A00E480EF45
:100E6900020F38E493A3F8E493A34003F68001F258
:100E790008DFF48029E493A3F85407240CC8C3338A
:100E8900C4540F4420C8834004F456800146F6DF59
:100E9900E4800B0102040810204080900FA1E47E39
:100EA900019360BCA3FF543F30E509541FFEE4934E
:100EB900A360010ECF54C025E060A840B8E493A315
:100EC900FAE493A3F8E493A3C8C582C8CAC583CA40
:100ED900F0A3C8C582C8CAC583CADFE9DEE780BEF8
:010FC500002B
:100B5D00BC000BBE0029EF8DF084FFADF022E4CC7C
:100B6D00F875F008EF2FFFEE33FEEC33FCEE9DEC45
:100B7D00984005FCEE9DFE0FD5F0E9E4CEFD22ED8B
:100B8D00F8F5F0EE8420D21CFEADF075F008EF2FD5
:100B9D00FFED33FD4007985006D5F0F222C398FDC6
:050BAD000FD5F0EA2263
:0E0BB200C3E49FFFE49EFEE49DFDE49CFC2254
:00000001FF
