:0300000002048374
:0C048300787FE4F6D8FD75812D0204CAD4
:1000460000EF00C500AF00A00096008E008700817B
:10005600007C007800740071006D006B006800651C
:1000660000630061005F005D005B005A00580056A7
:1000760000550054005200510050004E004D004CF7
:10008600004B004A0049004800470046004500442E
:1000960000430043004200410040003F003F003E55
:1000A600003D003D003C003B003A003A0039003973
:1000B600003800370037003600360035003400348B
:1000C600003300330032003200310031003000309E
:1000D600002F002F002E002E002D002D002C002CAE
:1000E600002B002B002A002A0029002900290028BD
:1000F60000280027002700260026002600250025C8
:1001060000240024002400230023002200220022D1
:1001160000210021002000200020001F001F001FDA
:10012600001E001E001D001D001D001C001C001CE2
:10013600001B001B001B001A001A001A00190019E8
:1001460000180018001800170017001700160016F0
:1001560000160015001500150014001400140013F5
:1001660000130013001200120012001100110010FB
:1001760000100010000F000F000F000E000E000E02
:10018600000D000D000D000C000C000C000B000B08
:10019600000B000A000A000900090009000800080F
:1001A6000008000700070007000600060005000516
:1001B60000360004000300030003000200020001F1
:1001C6000001000100000000FFFFFFFFFFFFFFFE30
:1001D600FFFEFFFDFFFDFFFCFFFCFFFBFFFBFFFA41
:1001E600FFFAFFF9FFF9FFF8FFF8FFF7FFF7FFF651
:1001F600FFF6FFF5FFF5FFF4FFF3FFF3FFF2FFF263
:10020600FFF1FFF0FFF0FFEFFFEEFFEDFFEDFFEC7C
:10021600FFEBFFEAFFE9FFE8FFE7FFE6FFE5FFE4A4
:10022600FFE3FFE2FFE0FFDFFFDDFFDCFFDAFFD8E1
:0C023600FFD5FFD2FFCEFFC9FFC1016958
:10068500022400000228000002080000020E0000FB
:10069500040A00000000041000000000022600000B
:1006A500022C0000022A000010143F065B4F666D05
:0A06B5007D077F6F777C395E797155
:10000E001206DF1206C01206F012002EE52B640156
:0D001E00452A70F8F52AF52B12059880EFA1
:03000B0002064AA0
:10064A00C0E0C0F0C083C082C0D075D000C000C076
:10065A0001C002C003C004C005C006C00712050FCE
:10066A00D007D006D005D004D003D002D001D000E4
:0B067A00D0D0D082D083D0F0D0E0328E
:03002B00020603C7
:10060300C0E0C0F0C083C082C0D075D000C000C0BD
:1006130001C002C003C004C005C006C007120371B5
:1006230053BCEF630FFF630EFF1206C0D007D00663
:10063300D005D004D003D002D001D000D0D0D082D6
:07064300D083D0F0D0E032BB
:03004300020700B1
:0D070000C0E0E59A30E103539AFDD0E032ED
:10002E00E4F5937594FFF59575960875A8A2F5AF4E
:01003E00229F
:1006DF00538E7F5389F0758A66758CFCC28DD28CD0
:0106EF0022E8
:1006C000759D00E4F5BDF5BE439720E50F450E701E
:0F06D00007439D1075BC8C22439D0875BC8B227F
:1006F000759A50438E0475D7E075D6FE438E10224E
:10050F000525E52570020524640845247004F524AB
:10051F00F525E4F5808525A0E5247069E5251460AF
:10052F001714601A24FD601C14602A1460442407F9
:10053F007053AE2CAF2D8010AE2CAF2D801BAE2C78
:10054F00AF2D8032AE26AF277C037DE81202427EAC
:10055F00007F64800FAE26AF277C007D64120242BD
:10056F007E007F0ACFCDCFCECCCE12024274142F95
:10057F00800EAE26AF277C007D0A12024274142D26
:09058F00F8E6F58022E4F5802273
:10037100AFBDEFFEADBE7C00E42DFFEC3EFEE50F10
:10038100450E701FFDE50D2FF50DE50C3EF50CED4D
:10039100350BF50BEC350AF50A0529E529702E0513
:1003A10028802AEF7802CEC313CE13D8F9FFE4FCDC
:1003B100FDE5132FF513E5123EF512ED3511F5119B
:1003C100EC3510F5100509E50970020508D3E5299A
:1003D10094D0E52894074044E52813FEE52913FF4E
:1003E100EF250DFFEE350CFEE4350BFDE4350AFC7F
:1003F100C006C007AE28AF29AB07AA06E4F9F8D0BA
:1004010007D0061202D38E268F27E4F528F529F5A9
:100411000DF50CF50BF50AF52A752B01D3E50994B9
:10042100D0E5089407405AE50813FEE50913FFEFEC
:100431002513FFEE3512FEE43511FDE43510FCC045
:1004410006C007AE08AF09AB07AA06E4F9F8D00762
:10045100D0061202D390004675F002EF120365EE4A
:1004610025E02583F583E493F52C740193F52DE4C0
:10047100F508F509F513F512F511F510F52A752BA7
:010481000179
:010482002257
:10059800759BAAE59A30E103D38001C350F5539ABD
:1005A800FD759B55E59A30E103D38001C350F5539F
:1005B8009AFDE526F59BE59A30E103D38001C35007
:1005C800F5539AFDE527F59BE59A30E103D38001C1
:1005D800C350F5539AFDE52CF59BE59A30E103D31A
:1005E8008001C350F5539AFDE52DF59BE59A30E15E
:0B05F80003D38001C350F5539AFD228D
:10048F0002000EE493A3F8E493A34003F68001F275
:10049F0008DFF48029E493A3F85407240CC8C3336E
:1004AF00C4540F4420C8834004F456800146F6DF3D
:1004BF00E4800B0102040810204080900685E47E42
:1004CF00019360BCA3FF543F30E509541FFEE49332
:1004DF00A360010ECF54C025E060A840B8E493A3F9
:1004EF00FAE493A3F8E493A3C8C582C8CAC583CA24
:1004FF00F0A3C8C582C8CAC583CADFE9DEE780BEDC
:0106BF00003A
:10024200BC000BBE0029EF8DF084FFADF022E4CCA0
:10025200F875F008EF2FFFEE33FEEC33FCEE9DEC69
:10026200984005FCEE9DFE0FD5F0E9E4CEFD22EDAF
:10027200F8F5F0EE8420D21CFEADF075F008EF2FF9
:10028200FFED33FD4007985006D5F0F222C398FDEA
:050292000FD5F0EA2287
:1002970075F008758200EF2FFFEE33FECD33CDCC1E
:1002A70033CCC58233C5829BED9AEC99E5829840A1
:1002B7000CF582EE9BFEED9AFDEC99FC0FD5F0D67E
:1002C700E4CEFBE4CDFAE4CCF9A88222B800C1B9A8
:1002D7000059BA002DEC8BF084CFCECDFCE5F0CBE6
:1002E700F97818EF2FFFEE33FEED33FDEC33FCEB1F
:1002F70033FB10D703994004EB99FB0FD8E5E4F9DA
:10030700FA227818EF2FFFEE33FEED33FDEC33FCC6
:10031700C933C910D7059BE99A4007EC9BFCE99ABA
:10032700F90FD8E0E4C9FAE4CCFB2275F010EF2FFF
:10033700FFEE33FEED33FDCC33CCC833C810D707FF
:100347009BEC9AE899400AED9BFDEC9AFCE899F83A
:0E0357000FD5F0DAE4CDFBE4CCFAE4C8F922CD
:0C036500A42582F582E5F03583F58322A3
:00000001FF
