:1001D400015B0A02430000013D0012223F065B4F0F
:1001E400666D7D077F6F777C395E797140000934D5
:1001F400000102030405060708095200101000114B
:100204001111000008450102040810204080C100BB
:02021400C10126
:1002D400759A1075D7E075D6FE438E1475BA01D29F
:0A02E4000343AF0143B501C2B72286
:10003000D28CD2A9D2AF438E80758CFC758A1822DF
:1002B8007594FFE4F59375960FF595F5B2F5B1F5DC
:0C02C80092F591D288D2A8C2B8D2AF2221
:0C02EE00E4FFE4FE0EBEFFFC0FBFFFF6B5
:0102FA0022E1
:1002970030041DE54D254E254F2550B55110E54D30
:1002A700B45A0BE54EB55206854F5985505AC204CC
:0102B7002224
:1001700020B3242000231202EE20B31D7452255B0D
:10018000F8067452255BF8E6B40802E4F6D200756E
:10019000430D7544AC8002C2002097352001341213
:1001A00002EE20972ED201E55B24FD601124FB6056
:1001B0001224FE6013240A700F755B03800D755BBB
:1001C000088008755B0A8003E4F55BE4F543F544B9
:0401D00022C2012224
:100217001202B81202D412003012017030022E7589
:100227003E5A85553F855240855A41E53E253F2533
:10023700402541F542D2B7E4FF743E2FF8E6F59B1F
:100247002003FDD2030FBF05F0C2B7C20212029707
:0202570080C75E
:03000300020006F2
:03000600D20232F1
:03000B00020046AA
:10004600C0E0C0F0C083C082C0D075D000C000C080
:0D00560001C002C003C004C005C006C00701
:100063000521E52175F00912000E85F02175800048
:1000730074342521F8E6F5A0E55BB52117C3E54403
:1000830094ACE5436480948D500A0544E54470368E
:10009300054380320544E54470020543E521B40875
:1000A300067445255A800874522521F8E62422F85F
:1000B300E6F580D3E5449440E5436480949F40068D
:0600C300754300754400C6
:1000C900D007D006D005D004D003D002D001D0008B
:0B00D900D0D0D082D083D0F0D0E03235
:030043000202595D
:10025900C0E0C0D075D008E59A30E023E59BB45AD8
:1002690008859B4D539AFE8016053D744D253DF832
:10027900A69B539AFEE53DB40405753D00D204E5FD
:0E0289009A30E105539AFDC203D0D0D0E03286
:030000000200E417
:0C00E400787FE4F6D8FD75815C02012BEA
:10000E00C2D530F707B2D563F0FF05F030E70CB27A
:10001E00D5F4048463F0FF05F080018430D502F43A
:02002E000422AA
:1000F000020217E493A3F8E493A34003F68001F20D
:1001000008DFF48029E493A3F85407240CC8C33310
:10011000C4540F4420C8834004F456800146F6DFDF
:10012000E4800B01020408102040809001D4E47E9A
:10013000019360BCA3FF543F30E509541FFEE493D4
:10014000A360010ECF54C025E060A840B8E493A39B
:10015000FAE493A3F8E493A3C8C582C8CAC583CAC6
:10016000F0A3C8C582C8CAC583CADFE9DEE780BE7E
:0102160000E7
:00000001FF
