:0912650030313A30323A303300E6
:0611BD00C296C295D29615
:1011C300E4FEC295EF1392CCEFC313FFD2950EBE8C
:0211D30008F022
:0111D50022F7
:1011ED00E4FEC295EFC313FF30CC03430780D295C5
:0411FD000EBE08EE2C
:0112010022CA
:0D1237001211BDAF051211C3C296D295224F
:0A1250001211BD1211EDC296D295E5
:01125A002271
:100E5A007F81121250EF5470C4540F75F00AA4FE29
:100E6A00EF540F2EF54A7F83121250EF5470C45478
:100E7A000F75F00AA4FEEF540F2EF54B7F85121260
:100E8A0050EF5470C4540F75F00AA4FEEF540F2E9D
:100E9A00F54C7F87121250EF5470C4540F75F00A44
:100EAA00A4FEEF540F2EF54E7F8B121250EF5470A2
:100EBA00C4540F75F00AA4FEEF540F2EF54D7F8926
:100ECA00121250EF5470C4540F75F00AA4FEEF5476
:100EDA000F2EF54F7F8D121250EF5470C4540F75B8
:100EEA00F00AA4FEEF540F2EF5507B007A00794ADF
:010EFA0022D5
:100EFB00901265E493FF121115EFC454F0FEC00677
:100F0B00901266E493FF121115D0E02FF54090126A
:100F1B0068E493FF121115EFC454F0FEC006901253
:100F2B0069E493FF121115D0E02FF54190126BE499
:100F3B0093FF121115EFC454F0FEC00690126CE42F
:100F4B0093FF121115D0E02FFCE4FD7F8E121237A8
:100F5B00AD047F80121237AD417F82121237AD4044
:100F6B007F841212377F81121250EF547FFD7F80E6
:0A0F7B001212377D807F8E021237BC
:10120200E4FD7F8E1212377DA97F901212377D8006
:051212007F8E0212377F
:0E122900759D80E4F5BD75BCFF7F020211D6F5
:1012170075BCEF00000000E5BC30E4FB53BCEFAF4A
:01122700BD09
:0112280022A3
:1011D600AE071FEE60107C137D88ED1DAA0470011A
:0611E6001C4A60EC80F4DD
:0111EC0022E0
:06116000AE071FEE601B4C
:10116600754A01754BF4E54B154BAC4A7002154AAE
:0B1176004C60E700000000000080EB70
:01118100224B
:0A125B00000102030405060708095C
:10104B00751200751301750E00750F02750A007588
:10105B000B03750C00750D047508007509057510EB
:10106B0000751106C205C204C200C20DC20BC20C30
:10107B00C20AC20EC202D201C208C207C203C2090F
:0A108B00E4F51AF5B1F592F5912293
:10113C00121217EFF4601A7F01121160121217EFDE
:10114C00F4600E5307E07805EF08800103D8FDFF2B
:03115C00227F07E8
:01115F00226D
:100FF70012113C8F1AE51A704AE51A700712113C54
:101007008F1A80F5C205C202C201C207C209D208FF
:10101700C200C20BD20D12113C8F1AE51A7014E5EB
:101027001A700712113C8F1A80F5C200C20BC20D4D
:10103700D20522120D7FE51A640760DA12113C8F80
:041047001A80F322F6
:100D7F00E51A147003020E4C146054147003020E23
:100D8F0053147003020E45146003020E5930001401
:100D9F00E5132401FFE43512FE7C007D64120AEA9C
:100DAF008C128D13300D14E50F2401FFE4350EFE68
:100DBF007C007D0D120AEA8C0E8D0F200B03020EA4
:100DCF0059E50B2401FF750A00EF541FF50B223074
:100DDF00001FD3E5139400E5129400400CE5132493
:100DEF00FFFFE51234FFFE80047E007F648E128FBA
:100DFF0013300D1FD3E50F9401E50E9400400CE561
:100E0F000F24FFFFE50E34FFFE80047E007F0C8E63
:100E1F000E8F0F300B34D3E50B9400E50A9400408E
:100E2F000CE50B24FFFFE50A34FFFE80047E007FF4
:100E3F001F8E0A8F0B22D200C20BC20D22C200D20C
:0B0E4F000BC20D22C200C20BD20D220C
:100C980012113C8F1AE51A147003020D7114605B6F
:100CA800147003020D78147003020D6A14600302B5
:100CB8000D7E300C14E50D2401FFE4350CFE7C009C
:100CC8007D18120AEA8C0C8D0D300A14E5092401EE
:100CD800FFE43508FE7C007D3C120AEA8C088D0989
:100CE800200E03020D7EE5112401FFE43510FE7C81
:100CF800007D3C120AEA8C108D1122300C1FD3E5BE
:100D08000D9400E50C9400400CE50D24FFFFE50C64
:100D180034FFFE80047E007F188E0C8F0D300A1F72
:100D2800D3E5099400E5089400400CE50924FFFF89
:100D3800E50834FFFE80047E007F3C8E088F093072
:100D48000E34D3E5119400E5109400400CE511240D
:100D5800FFFFE51034FFFE80047E007F3C8E108F7D
:100D68001122D20CC20EC20A22D20EC20CC20A2210
:070D7800D20AC20CC20E22D8
:1010950020B33E7F0112116030B3FDC204D207C2F6
:1010A50002C201C208C209C20CD20AC20E20B31183
:1010B5007F0112116030B3FDC20CC20AC20ED20408
:1010C50022120C98E51A640760E312113C8F1A800E
:0210D500F32204
:1005D40078407C007D007BFF7A12795B7E007F0A85
:1005E400120AB2120E5A785A7C007D007E007F07F0
:1005F400120AB212113C8F1AE51AB40310E51AB4A8
:10060400030712113C8F1A80F4C204C20530B203EE
:1006140002081A7F0112116030B20302081A200482
:100624000302079E20050302079E20B20CD202C2D9
:1006340001C207C208C20980F1C202C207C208D2BD
:1006440001C209E4FD7F8E1212377F81121250EF2E
:100654004480FD7F80121237AE10AF117C007D0AFA
:10066400120AEA74402FF8E6C454F0FBAE10AF113E
:100674007C007D0A120AEA74402DF8E64BFD7F8067
:10068400121237AE08AF097C007D0A120AEA7440E0
:100694002FF8E6C454F0FBAE08AF097C007D0A12C3
:1006A4000AEA74402DF8E64BFD7F82121237AE0C35
:1006B400AF0D7C007D0A120AEA74402FF8E6C45498
:1006C400F0FBAE0CAF0D7C007D0A120AEA74402DDB
:1006D400F8E64BFD7F84121237AE0AAF0B7C007D27
:1006E4000A120AEA74402FF8E6C454F0FBAE0AAFCB
:1006F4000B7C007D0A120AEA74402DF8E64BFD7F5C
:1007040086121237AE0EAF0F7C007D0A120AEA740D
:10071400402FF8E6C454F0FBAE0EAF0F7C007D0A08
:10072400120AEA74402DF8E64BFD7F88121237AEA8
:1007340012AF137C007D0A120AEA74402FF8E6C453
:1007440054F0FBAE12AF137C007D0A120AEA744027
:100754002DF8E64BFD7F8C121237C20F85134A85A4
:100764000F4B850B4C1210D7AE61AF627C007D0A33
:10077400120AEA74402FF8E6C454F0FBAE61AF628B
:100784007C007D0A120AEA74402DF8E64BFD7F8A4C
:100794001212377D807F8E021237300434200531E7
:1007A40020B20CD207C202C201C209C20880F1C23F
:1007B40002C209C208C207D20120065AD206850C19
:1007C40016850D17850814850915851018851119C6
:1007D4002220043830053520B20CD208C202C201EE
:1007E400C209C20780F1C202C207C208C201D2090B
:1007F400C20F85134A850F4B850B4C12081BC20F81
:1008040085134A850F4B850B4C0210D7C202D201C7
:06081400C209C207C20880
:01081A0022BB
:1011A1003F065B4F666D7D077F6F777C395E797196
:0C11B1004000097300010203040506075A
:101182007594FFE4F59375960FF595F51BF51C75AF
:0F1192008901D2AFD2A9758CFC758A17D28C2235
:03000B0002000EE2
:10000E00C0E0C0F0C083C082C0D075D000C000C0B8
:0D001E0001C002C003C004C005C006C00739
:10002B0078237C007D007BFF7A1179A17E007F1401
:10003B00120AB278377C007D007BFF7A1179B57E8E
:10004B00007F08120AB2758CFC758A17051CE51C1B
:10005B007002051B6408451B7004F51BF51C7580AD
:10006B00007437251CF8E6F5A0300148E51B7041FC
:10007B00E51C14601624FE601614601724FE60172E
:10008B0014601E2407702AE55C800EE55C8014E585
:10009B005B8006E55B800CE55A75F00A84242380AF
:1000AB000AE55A75F00A84742325F0F8E6F580808A
:1000BB0003853380300271E51B706AE51CB40800C0
:1000CB0050639000D4F82828730200EC0200F00271
:1000DB0000F40200F802010A0201140201300201CD
:1000EB0020E560801CE5608006E55F8014E55F75A8
:1000FB00F00A84742325F0F8E64480F5808029E526
:10010B005E75F00A8424238016E55E75F00A84740C
:10011B002325F0800AE55D75F00A84742325F0F839
:10012B00E6F58080038533802007030201ECE51B95
:10013B0060030201E9E51C14601B24FE603C1460A3
:10014B003F24FE6060146071240760030201E9AE76
:10015B000CAF0D8054AE0CAF0D7C007D0A300C0D36
:10016B00120AEA74232DF8E64480FF8009120AEA8A
:10017B0074232DF8E6FF8F808067AE08AF098029C6
:10018B00AE08AF097C007D0A300A0D120AEA74230F
:10019B002DF8E64480FF8009120AEA74232DF8E655
:1001AB00FF8F80803CAE10AF117C007D0A120AEAF3
:1001BB0074232FF8E6F5808028AE10AF117C007DFC
:1001CB000A300E0D120AEA74232DF8E64480FF80E4
:1001DB0009120AEA74232DF8E6FF8F80800385331A
:1001EB00802008030202A5E51B60030202A2E51CA6
:1001FB0014601B24FE603C14603F24FE606014609E
:10020B0071240760030202A2AE12AF138054AE1228
:10021B00AF137C007D0A30000D120AEA74232DF80F
:10022B00E64480FF8009120AEA74232DF8E6FF8F5B
:10023B00808067AE0EAF0F8029AE0EAF0F7C007DB6
:10024B000A300D0D120AEA74232DF8E64480FF8064
:10025B0009120AEA74232DF8E6FF8F80803CAE0A60
:10026B00AF0B7C007D0A120AEA74232FF8E6F580A7
:10027B008028AE0AAF0B7C007D0A300B0D120AEA08
:10028B0074232DF8E64480FF8009120AEA74232DAB
:10029B00F8E6FF8F808003853380300975E51B708E
:1002AB006EE51CB4080050679002BAF82828730258
:1002BB0002D20202D80202DE0202E40202EA0202C7
:1002CB00FE02031A02030EAE65AF668016AE65AF73
:1002DB00668024AE63AF64800AAE63AF648018AEF1
:1002EB0067AF687C007D0A120AEA74232FF8E6F5E3
:1002FB0080801FAE67AF687C007D0A120AEA742308
:10030B002D800474232562F8E64480F580800385F4
:10031B003380300329E51B7022E51C14600D04703B
:10032B001AE51A75F00A842423800AE51A75F00A77
:0E033B0084742325F0F8E6F580800385338076
:10034900D007D006D005D004D003D002D001D00008
:0B035900D0D0D082D083D0F0D0E032B2
:100F850012118212122912104B7F81121250EF306A
:100F9500E703120EFB121202120E5A785A7C007DDC
:100FA500007E007F07120AB2300630E55C651770D7
:100FB50002E5167026E55BB51521E4B5141DE55A65
:070FC500B51918E4B518147A
:100FCC00F53FB2B47F0A121160053FE53FC394644C
:040FDC0040F0C20619
:100FE000121095120FF71205D47F81121250EF30B4
:070FF000E7AB120EFB80A627
:1003640004AE530A57485526BD0D26500D954446F4
:10037400AAB9056A4D09AD4224AEB604AE4A6A4D27
:10038400BE0A4D520D25465D52BA0B544E0D6A43BA
:10039400296D37095B4B749BC10497540A4B485B26
:1003A40025BC06A55006D4454ADAB802B64D09570D
:1003B400422497B704974A664B3E0D4A510EA54610
:1003C40056D4BA05AD4E02B644393738092E4B7CA3
:1003D40096BF0C95530D4A486DA53B0B554F056AC6
:1003E400454AADB9025D4D092D422C95B60A954A90
:1003F4007B4ABD06CA510B5546555ABB04DA4E0A10
:100404005B43352BB8052B4C8A953F0E955206AAB3
:10041400487AD53C0AB54F04B6454A57390A574D70
:100424000526423E93350D954975AABE056A5109C4
:100434006D4654AEBB04AD4F0A4D434D26B70D2552
:100444004B8D52BF0B54520B6A47696D3C095B508C
:10045400049B454A4BB90A4B4DAB25C206A554062D
:10046400D4496ADA3D0AB6510937465497BB049712
:100474004F064B4436A5370EA54A86B2BF05AC538A
:100484000AB6475936BC092E500C96454D4AB80D4C
:100494004A4C0DA54125AAB6056A497AADBD025D4F
:1004A40052092D475C95BA0A954E0B4A434B553772
:1004B4000AD54A955ABF04BA530A5B48652BBC0552
:1004C4002B500A9345474AB906AA4C0AD54124DA67
:1004D400B604B64A69573D0A4E510D26465E933A14
:1004E4000D534D05AA4336B537096D4BB4AEBF0461
:1004F400AD530A4D486D25BC0D254F0D52445DAAE0
:10050400380B5A4C056D4124ADB6049B4A7A4BBE58
:100514000A4B510AA5465B52BA06D24E0ADA423554
:100524005B3709374B8497C1049753064B4866A53C
:100534003C0EA54F06B2444AB6380AAE4C092E42C8
:100544003C97350C96497D4ABD0D4A510DA545553C
:10055400AABA056A4E0A6D43452EB7052D4B8A95F6
:10056400BF0A95530B4A476B553B0AD54F055A456D
:100574004A5D380A5B4C052B423A93B60693497799
:1005840029BD06AA510AD54654DABA04B64E0A570A
:10059400434527380D264A8E933E0D52520DAA47E5
:1005A40066B53B056D4F04AE454A4EB90A4D4C0D38
:1005B40015412D92B5001F3B5A7897B5D4F301111C
:1005C4000130014E00030306010406020500030581
:060B3F00AD52AC51AF4EB7
:100B4500EF14B40D004003020C95900B5D75F00396
:100B5500A4C58325F0C58373020B84020B99020B90
:100B6500AE020BC3020BD8020BED020C02020C17EE
:100B7500020C2C020C41020C56020C6B020C807408
:100B8500642DF58274033CF583E49320E3037F0031
:100B9500227F012274642DF58274033CF583E4936E
:100BA50020E2037F00227F012274642DF582740305
:100BB5003CF583E49320E1037F00227F01227464E6
:100BC5002DF58274033CF583E49320E0037F002236
:100BD5007F012274652DF58274033CF583E493202F
:100BE500E7037F00227F012274652DF58274033CA3
:100BF500F583E49320E6037F00227F012274652DAF
:100C0500F58274033CF583E49320E5037F00227F9E
:100C1500012274652DF58274033CF583E49320E489
:100C2500037F00227F012274652DF58274033CF554
:100C350083E49320E3037F00227F012274652DF571
:100C45008274033CF583E49320E2037F00227F0155
:100C55002274652DF58274033CF583E49320E1034A
:100C65007F00227F012274652DF58274033CF58394
:100C7500E49320E0037F00227F012274662DF58234
:100C850074033CF583E49320E7037F00227F012270
:030C95007F0022BB
:10081B00E54A200F072463FFE433800624FFFFE43F
:10082B0034FFFE7C007D03120AD88E518F52746602
:10083B002552F58274033551F583E493FE5460FB26
:10084B007805FF08800103D8FDFBEE541FF9BB01AF
:10085B000514F54D8005E9241EF54DE54BC3940AAF
:10086B00E54B500B9005B893254CFFE433801525D1
:10087B00E024AEF582E43405F583740193254CFF37
:10088B00E4933400CF24FFF550EF34FFF54FE54BE5
:10089B00D39402400EE54A540370080550E550709E
:1008AB0002054FAF4D7E00C3E5509FE54F9E5003B1
:1008BB0002093DE5509FF550E54F9EF54F754B01F5
:1008CB00754E01120B3FEF24FF9210C21120100442
:1008DB007B1D80027B1E74642552F5827403355197
:1008EB00F583E49354F0F97804FF08800103D8FDF5
:1008FB00F9EBFF7E00C3E5509FE54F9E402FE5507F
:10090B009FF550E54F9EF54F054EE54BB50109B2EE
:10091B0011201106054B8002054B120B3FEF24FFF4
:10092B0092102010047B1D80C87B1E80C4E55002F2
:10093B0009C8C3E54D9550F54DE54A7007754A63F7
:10094B00D20F8002154A74FD2552F55274FF3551B2
:10095B00F551754B0CFE74642552F58274033EF50C
:10096B0083E49354F0F97804FF08800103D8FDF970
:10097B007005754E0C8003754E0DC211120B3FEFB7
:10098B0024FF92102010047B1D80027B1EE54DD3AB
:10099B009B4026E54D9BF54D154E201102154BE561
:1009AB004BB50102B211120B3FEF24FF9210201036
:1009BB00047B1D80D87B1E80D4C3EB954D04F54C76
:1009CB00A20F9214756500854A66756300854B64AA
:0609DB00756700854C6801
:0109E10022F3
:1010D700200F067464254AF54AE54A1313543F2541
:1010E7004A75F00784AFF0E54C2FFFE54B9005C735
:1010F700932FFFE54A54037008E54BC3940350014F
:0D1107001FEF75F00784AFF07561008F6277
:0111140022B8
:03000000021244A5
:0C124400787FE4F6D8FD758168020F8504
:1009E200E709F608DFFA8046E709F208DFFA803EF7
:1009F20088828C83E709F0A3DFFA8032E309F608E4
:100A0200DFFA8078E309F208DFFA807088828C834B
:100A1200E309F0A3DFFA806489828A83E0A3F608FF
:100A2200DFFA805889828A83E0A3F208DFFA804CD9
:100A320080D280FA80C680D4806980F280338010B0
:100A420080A680EA809A80A880DA80E280CA803319
:100A520089828A83ECFAE493A3C8C582C8CCC58391
:100A6200CCF0A3C8C582C8CCC583CCDFE9DEE78061
:100A72000D89828A83E493A3F608DFF9ECFAA9F0E0
:100A8200EDFB2289828A83ECFAE0A3C8C582C8CC36
:100A9200C583CCF0A3C8C582C8CCC583CCDFEADE4F
:100AA200E880DB89828A83E493A3F208DFF980CCB1
:100AB20088F0EF60010E4E60C388F0ED2402B404AA
:100AC2000050B9F582EB2402B4040050AF23234551
:060AD2008223900A32733A
:100AD800EF8DF0A4A8F0CF8CF0A428CE8DF0A42E32
:020AE800FE22EC
:100AEA00BC000BBE0029EF8DF084FFADF022E4CCF0
:100AFA00F875F008EF2FFFEE33FEEC33FCEE9DECB9
:100B0A00984005FCEE9DFE0FD5F0E9E4CEFD22EDFE
:100B1A00F8F5F0EE8420D21CFEADF075F008EF2F48
:100B2A00FFED33FD4007985006D5F0F222C398FD39
:050B3A000FD5F0EA22D6
:10111500EF7E0024D0B40A00401B24F9B40A004035
:1011250011B41000400F24E0B40A004005B41000CB
:07113500400374FFFEFF22DE
:00000001FF
