:0300000002069E57
:0C069E00787FE4F6D8FD7581400206E587
:100B41003F065B4F666D7D077F6FBF86DBCFE6EDAE
:040B5100FD87FFEF2E
:0D0BD200E4F5977594FFF593F596F59522DF
:1003CF0012010B7E007F0ACFCDCFCECCCE12010B08
:0603DF007B017D077C009C
:0A03E5008E0C8F0D8C0E8D0F8B1007
:1003EF0078117C007D007BFF7A0B79417E007F0ABC
:1003FF001200D3781B7C007D007BFF7A0B794B7E3C
:10040F00007F0A1200D3E50E706CE50F14B40800DC
:10041F00506490042F75F003A4C58325F0C5837332
:10042F0002044702044D02045302045902045F02FE
:10043F00046902047302047DC2A3C2A28016C2A380
:10044F00C2A2801AC2A3C2A2801EC2A3C2A28022CD
:10045F00C2A3D2A2C2A1C2A0801CC2A3D2A2C2A117
:10046F00D2A08012C2A3D2A2D2A1C2A08008C2A3DE
:10047F00D2A2D2A1D2A0E5106013741B250DF8E60D
:10048F00F5807FF47E01120BB5D2A3801174112574
:10049F000DF8E6F5807FF47E01120BB5D2A3E4F5DB
:0804AF00807FF47E01120BB501
:0104B7002222
:1004B8008E0A8F0B7C037DE812010BEF4E6057E428
:1004C800FB7D05FC1203E5AE0AAF0B7C037DE81249
:1004D800010B7E007F64CFCDCFCECCCE12010BE4D2
:1004E800FB7D06FC1203E5AE0AAF0B7C037DE81228
:1004F800010B7E007F64CFCDCFCECCCE1203CFAE22
:100508000AAF0B7C037DE812010B7E007F64CFCD20
:10051800CFCECCCE8026AE0AAF0B7C007D64120114
:100528000BE4FB7D06FC1203E5AE0AAF0B7C007DF5
:10053800641203CFAE0AAF0B7C007D6412010B7E00
:10054800007F0ACFCDCFCECCCE12010BAE04AF05C3
:09055800E4FB7D08FC1203E5221E
:100B2D00E47B64FAF9F8AF3AAE39AD38AC3712015F
:040B3D009C0204B85A
:1009DA00E52575F00A84FF7E00E4FB7D03FC120323
:1009EA00E5E52575F00A84AFF07E00E4FB7D04FCA2
:0309FA000203E510
:100B9100E53675F00A84AFF07E00E4FB7D01FC02CE
:020BA10003E56A
:10091600082BC0111A50400A88A0052600000000C6
:100926000004370000000002340000013300013CDF
:0709360000013B0001250058
:100AEB00120BC4120BD2E4F5B4F5B375CAFFF5C9FA
:060AFB00120561C2A322F6
:100B5500120AEB12023F1208AD120B2D1209DA121E
:040B65000B9180EF81
:03093D00013F0077
:0E0BC400759D80E4F5BD75BCFF7F02020AD46A
:100BA30075BCEF00000000E5BC30E4FB53BCEFAFC5
:010BB300BD84
:010BB400221E
:1008AD0020B21A30B2FD152512098FE53675F00309
:1008BD00A414FFAD251209FD7F05120A6320B31A9A
:1008CD0030B3FD052512098FE53675F003A414FF2D
:0B08DD00AD251209FD7F05120A632201
:10023F00120BA38F08E508C3946050030202CDE5AB
:10024F0008D3947F5078120BA38F08E508C39460EE
:10025F0050030203CEE508D3947F40030203CE126E
:10026F000BA38F08E508D394F040F4E53675F0033F
:10027F00A424FDF53B120A1FE535AE347802CEC338
:10028F0013CE13D8F9F52D7E00E53554037806C348
:10029F0033CE33CED8F9F52EAD2DAF3B1209FD7FFE
:1002AF0005120A63E53B04FFAD2E1209FD7F05120F
:1002BF000A63AD367F1F1209FD7F05020A63E50849
:1002CF00C394804031E508D394A0502A120BA38F1A
:1002DF0008E508C3948050030203CEE508D394A029
:1002EF0040030203CE120BA38F08E508D394F0400E
:1002FF00F47509FF8039E508C394204037E508D32A
:10030F00943F5030120BA38F08E508C3942050037D
:10031F000203CEE508D3943F40030203CE120BA392
:10032F008F08120B2DE508D394F040F1750901AF3A
:10033F0009020603E508C39440403DE508D3945FE6
:10034F005036120BA38F08E508C394404071E5089F
:10035F00D3945F506A120BA38F08E53675F00A84A9
:10036F00AFF07E00E4FB7D01FC1203E5E508D394BA
:10037F00F040E2E4F5098042E508C394A04040E56F
:10038F0008D394BF5039120BA38F08E508C394A06C
:10039F00402DE508D394BF5026120BA38F08E536E6
:1003AF0075F00A84AFF07E00E4FB7D01FC1203E5DB
:0F03BF00E508D394F040E2750901AF0912072A4F
:0103CE00220C
:100B0100D2C0D2CDC2C07F057E00120BB5C2CD7F4F
:060B1100057E00020BB599
:100B6900C2C0D2CD7F057E00120BB5D2C07F057EF3
:040B790000020BB5B6
:100AA200E4FFD2CD30C009EFC394FA50030F80F4B3
:090AB200C2CD7F057E00020BB5E8
:10087000C2CD7F057E00120BB5D2C07F057E00126F
:100880000BB5E4F50DD2CD7F057E00120BB5E50C5E
:1008900025E0FFA2C0E4334FF50CC2CD7F057E00FA
:0C08A000120BB5050DE50DB408DBAF0C24
:0108AC002229
:0207AD008F0CAF
:1007AF00E4F50DC2CD7F057E00120BB5E50C33923B
:1007BF00C0E50C25E0F50C7F057E00120BB5D2CD00
:1007CF007F057E00120BB5050DE50DB408D5C2CD22
:1007DF007F057E00120BB5D2C07F057E00020BB5E0
:1009FD008F0A8D0B120B017FA01207AD120AA2AF49
:100A0D000A1207AD120AA2AF0B1207AD120AA2020B
:020A1D000B6963
:0208E8008F0A75
:1008EA00120B017FA01207AD120AA2AF0A1207ADBE
:1008FA00120AA2120B69120B017FA11207AD120A8A
:0B090A00A21208708F0B120B69AF0BDC
:0109150022BF
:060A6300AE071FEE601A51
:100A6900750A01750BF4E50B150BAC0A7002150A32
:0A0A79004C60E7000000000080EC74
:010A83002250
:0F0BB500EF1FAC0670011E4C6004000080F2229E
:100AD400AE071FEE60107C137D88ED1DAA04700123
:060AE4001C4A60EC80F4E6
:010AEA0022E9
:100561007F1F1208E88F36E536C394014007E53650
:10057100D394094003753601E53675F003A424FDD3
:10058100FF1208E88F2DE53675F003A424FEFF1253
:1005910008E8EF4410F52EE53675F003A414FF12B8
:1005A10008E88F2512098F1209B5120A417FE07EF2
:1005B100A57D017C00AB3AAA39A938A837D312022C
:1005C1002E50107FCC7E557D017C00A837C31202CE
:1005D1002E502C753AD8753953753801753700127C
:1005E1000A1FE535AE347802CEC313CE13D8F9F520
:1005F1002DE5355403FFC4333354C04410F52E02A6
:020601000941AD
:100B1700D2A7D2C5C2A77F0A7E00120BB5C2C57F76
:060B27000A7E00020BB57E
:100B7D00C2A7D2C57F0A7E00120BB5D2A77F0A7E0F
:040B8D0000020BB5A2
:100A8400C2A77F0A7E00120BB5D2C57F0A7E001270
:0E0A94000BB5C2C57F0A7E00120BB5D2A72299
:100ABB00E4FFD2C530A709EFC394FA50030F80F4BB
:090ACB00C2C57F0A7E00020BB5D2
:0207EF008F0C6D
:1007F100E4F50DC2C57F0A7E00120BB5E50C3392FC
:10080100A7E50C25E0F50C7F0A7E00120BB5D2C5D9
:100811007F0A7E00120BB5050DE50DB408D5C2C5E2
:100821007F0A7E00120BB5D2A77F0A7E00020BB5AC
:10094100120B177F201207EF120ABBE4F50B742B71
:10095100250BF8E6FF1207EF120A84050BE50BC31E
:07096100940840EA020B7D3F
:10083100E4F53DC2C57F0AFE120BB5D2A77F0A7E41
:1008410000120BB5E4F53ED2C57F0A7E00120BB54E
:10085100E53D25E0FFA2A7E4334FF53DC2C57F0A80
:0E0861007E00120BB5053EE53EB408DBAF3D50
:01086F002266
:10096800120B177F211207EF120ABBE4F540120899
:100978003174262540F8A607120A840540E540C3CD
:07098800940540EA020B7D1B
:10098F00E525C3940A4008E525F46003E4F525E561
:10099F0025B4FF03752509E525540FFFE53254F003
:0609AF004FF53202094180
:1009B500753400852D35E52EC413135403FD7C00D5
:1009C500E535AE347802C333CE33CED8F92DF535BF
:0509D500EE3CF53422A8
:100A1F00E53A2428FFE53934ACFEE53834FEFDE530
:100A2F003734FFFCE47B64FAF9F812019C8E348FA3
:020A3F0035225E
:100A4100AE34AF357C007D641200F9EF24D8FFEE9F
:100A51003453FEE43401FDEC338F3A8E398D38F591
:020A610037223A
:100603008F0AE50AB40132E53A2464F53AE4353950
:10061300F539E43538F538E43537F5377FE07EA52D
:100623007D017C00AB3AAA39A938F8D312022E40D7
:1006330047753ACC7539558039E50AB4FF3AC3E5B5
:100643003A9464F53AE5399400F539E5389400F5C0
:1006530038E5379400F5377FCC7E557D017C00ABC0
:100663003AAA39A938F8C312022E500C753AE0752C
:1006730039A5753801753700120A1FE535AE347890
:1006830002CEC313CE13D8F9F52DE5355403FFC4B9
:0B069300333354C04410F52E0209411F
:10072A00EF60380536E536B40A03753601E53675E5
:10073A00F003A424FDF53CFF1208E88F2DE53C04E4
:10074A00FF1208E8EF4410F52EE53C2402FF1208D8
:10075A00E88F2512094112098F8035D5360375367F
:10076A0009E53675F003A424FDF53CFF1208E88F6D
:10077A002DE53C04FF1208E8EF4410F52EE53C2471
:10078A0002FF1208E88F2512094112098F12094146
:10079A001209B5AD367F1F1209FD7F05120A6312D1
:0307AA000A4122DF
:1006AA00020B55E493A3F8E493A34003F68001F206
:1006BA0008DFF48029E493A3F85407240CC8C33351
:1006CA00C4540F4420C8834004F456800146F6DF20
:1006DA00E4800B0102040810204080900916E47E91
:1006EA00019360BCA3FF543F30E509541FFEE49315
:1006FA00A360010ECF54C025E060A840B8E493A3DC
:10070A00FAE493A3F8E493A3C8C582C8CAC583CA06
:10071A00F0A3C8C582C8CAC583CADFE9DEE780BEBE
:0109400000B6
:10000300E709F608DFFA8046E709F208DFFA803EDF
:1000130088828C83E709F0A3DFFA8032E309F608CC
:10002300DFFA8078E309F208DFFA807088828C8334
:10003300E309F0A3DFFA806489828A83E0A3F608E8
:10004300DFFA805889828A83E0A3F208DFFA804CC2
:1000530080D280FA80C680D4806980F28033801099
:1000630080A680EA809A80A880DA80E280CA803302
:1000730089828A83ECFAE493A3C8C582C8CCC5837A
:10008300CCF0A3C8C582C8CCC583CCDFE9DEE7804A
:100093000D89828A83E493A3F608DFF9ECFAA9F0C9
:1000A300EDFB2289828A83ECFAE0A3C8C582C8CC1F
:1000B300C583CCF0A3C8C582C8CCC583CCDFEADE38
:1000C300E880DB89828A83E493A3F208DFF980CC9A
:1000D30088F0EF60010E4E60C388F0ED2402B40493
:1000E3000050B9F582EB2402B4040050AF2323453A
:0600F3008223900053730C
:1000F900EF8DF0A4A8F0CF8CF0A428CE8DF0A42E1B
:02010900FE22D4
:10010B00BC000BBE0029EF8DF084FFADF022E4CCD8
:10011B00F875F008EF2FFFEE33FEEC33FCEE9DECA1
:10012B00984005FCEE9DFE0FD5F0E9E4CEFD22EDE7
:10013B00F8F5F0EE8420D21CFEADF075F008EF2F31
:10014B00FFED33FD4007985006D5F0F222C398FD22
:05015B000FD5F0EA22BF
:1001600075F008758200EF2FFFEE33FECD33CDCC56
:1001700033CCC58233C5829BED9AEC99E5829840D9
:100180000CF582EE9BFEED9AFDEC99FC0FD5F0D6B6
:10019000E4CEFBE4CDFAE4CCF9A88222B800C1B9E0
:1001A0000059BA002DEC8BF084CFCECDFCE5F0CB1E
:1001B000F97818EF2FFFEE33FEED33FDEC33FCEB57
:1001C00033FB10D703994004EB99FB0FD8E5E4F912
:1001D000FA227818EF2FFFEE33FEED33FDEC33FCFF
:1001E000C933C910D7059BE99A4007EC9BFCE99AF3
:1001F000F90FD8E0E4C9FAE4CCFB2275F010EF2F38
:10020000FFEE33FEED33FDCC33CCC833C810D70737
:100210009BEC9AE899400AED9BFDEC9AFCE899F872
:0E0220000FD5F0DAE4CDFBE4CCFAE4C8F92205
:10022E00EB9FF5F0EA9E42F0E99D42F0E89C45F026
:01023E00229D
:00000001FF
