:100344001110211025102510261026102510251017
:100354002410141023101310221022102110211025
:1003640025102510241024202310231022102210DD
:1003740025102510241024202310231022102210CD
:1003840021102110251025102610261025102510C7
:1003940024102410231023102210221021102120B5
:1003A4000000F88CF95BFA15FA67FB04FB90FC0C6F
:1003B400FC44FCACFD09FD34FD82FDC8FE06FE22B2
:0C03C400FE56FE6EFE9AFEC1FEE4FF0332
:10045C000141000639777F39006F7B0843777F397C
:10046C003F79713D40084B76061EF6384F374008F1
:10047C00533F73BF40F76D0740085B623EF940F68F
:10048C00E6DB400863F6E6DB80373FF9000821E63F
:10049C003F62006D797900086B0F397737006D7703
:1004AC00E60829777F3900000000000831000102BE
:0504BC00030405060722
:10058A00D3EF9400EE940040147D7C7C00ED1D7046
:0D059A00011CED4C70F7EF1F70E61E80E3B2
:0105A7002231
:10054700EFC4540FFEEF540FFFBE0104E4FE800C0E
:10055700BE02047E0E8005BE03027E1CEF1425E05A
:020567002EFF65
:01056900226F
:1004C2003000FDE54190034493F9FF7009F5417F47
:1004D200E87E0302058ABFFF0C05417F647E00129D
:1004E200058AC28C22AF01120547EF9003A693F54D
:1004F2003FEFA393F5420541853F8C85428AE54152
:1005020090034493FB0541D28CEB75F0B4A4FFAE8B
:0A051200F012058AC28CC2B480A664
:1005A8007594FFE4F593759608F59575B210F5B155
:0905B800F5B4F5B3F5CAF5C9224A
:10056A00758901758CD8758AEF758DFC758B18D2D3
:10057A00AFD2A9D2ABC28CD28ED2A8C200C2B42248
:1005C1001205A812056AE4F580D2B2F5401204C200
:0205D10080FBAD
:03000B0002000EE2
:09000E00853F8C85428AB2B432B0
:0300030002051CD7
:10051C00C0E0C0D075D000C004C005C006C0072024
:10052C00B20C7F0A7E0012058A20B202B200D007FC
:0B053C00D006D005D004D0D0D0E032B3
:03001B0002001EC2
:10001E00C0E0C083C082C0D075D000C0000540E5EE
:10002E0040B4080375400075800074312540F8E631
:10003E00F5A0E5417037E54014601414601724FEF6
:10004E00601914601C2405701E85398002033985E1
:10005E003A80020339853B80020339853D800203D5
:10006E0039853E80020339853C80020339E541C360
:10007E0094105053E540B407005046900090F82875
:10008E0028730200A50200AB0200B10200B7020005
:10009E00BD0200C30200C985438002033985448036
:1000AE00020339854580020339854680020339856E
:1000BE00478002033985488002033985498002034F
:1000CE0039854A80020339E541C394205053E540F7
:1000DE00B4070050469000EAF82828730200FF0289
:1000EE00010502010B02011102011702011D02019D
:1000FE0023854B80020339854C80020339854D8060
:10010E00020339854E80020339854F8002033985FB
:10011E0050800203398551800203398552800203D3
:10012E0039E541C394305053E540B4070050469032
:10013E000144F828287302015902015F0201650289
:10014E00016B02017102017702017D85538002036A
:10015E0039855480020339855580020339855680CE
:10016E000203398557800203398558800203398589
:10017E005980020339855A80020339E541C3944000
:10018E005053E540B40700504690019EF82828735E
:10019E000201B30201B90201BF0201C50201CB0285
:1001AE0001D10201D7855B80020339855C80020391
:1001BE0039855D80020339855E80020339855F8053
:1001CE000203398560800203398561800203398517
:1001DE006280020339E541C394485053E540B407A9
:1001EE000050469001F8F828287302020D020213FF
:1001FE0002021902021F02022502022B020231859F
:10020E0063800203398564800203398565800203A9
:10021E0039856680020339856780020339856880D7
:10022E00020339856980020339856A80020339E544
:10023E0041C394505053E540B407005046900252CB
:10024E00F828287302026702026D02027302027915
:10025E0002027F02028502028B852180020339850C
:10026E00228002033985238002033985248002030C
:10027E00398525800203398526800203398527803A
:10028E00020339852880020339E541C39458504B47
:10029E00E540B40700503F9002ACF82828730202E4
:1002AE00C10202C60202CB0202D00202D50202DA5B
:1002BE000202DF856B808073856C80806E856D8019
:1002CE008069856E808064856F80805F8570808098
:1002DE005A85718080558572808050E541C3946047
:1002EE005049E540B40700503F9002FEF8282873AD
:1002FE0002031302031802031D0203220203270244
:10030E00032C0203318529808021852A80801C855B
:10031E002B808017852C808012852D80800D852E58
:10032E00808008852F808003853080D000D0D0D08B
:06033E0082D083D0E03202
:030000000203D028
:0C03D000787FE4F6D8FD758172020417F6
:1003DC000205C1E493A3F8E493A34003F68001F271
:1003EC0008DFF48029E493A3F85407240CC8C33322
:1003FC00C4540F4420C8834004F456800146F6DFF1
:10040C00E4800B010204081020408090045CE47E20
:10041C00019360BCA3FF543F30E509541FFEE493E5
:10042C00A360010ECF54C025E060A840B8E493A3AC
:10043C00FAE493A3F8E493A3C8C582C8CAC583CAD7
:10044C00F0A3C8C582C8CAC583CADFE9DEE780BE8F
:0104C100003A
:00000001FF
