:0400370000A8C0005D
:040533000232AA5591
:100DF100E52EC394807B007A00792C7D0650057C1A
:080E010000020D54120C402206
:0D0046007B007A00792C7D067C00020DAD58
:10000E00120E71EF600D7B007A00792C7D067C005C
:04001E00120DAD22F0
:1008DC007FB07E047D007C00120A5A7526017F8051
:1008EC007E257D007C0012069E7F2B120E097BFF5D
:1008FC007A0D79F17F091209667BFF7A0079467FC0
:10090C000A1209667BFF7A00790E7F0B1209667555
:10091C002700752800752932752A00752B027B007B
:10092C007A00792C7D067C00120CF0752700752856
:10093C0000752932752A00752B027B007A00792C00
:10094C007D067C00120CBD7B007A00792C7D061292
:0A095C000E5F120E68120C7F80FB84
:100537004100000A4100290A41006D0A040E00002B
:1005470000000113004600670000FFFF8FFFC10A8C
:10055700C105C108C101C10B60240005FF000AFFE6
:10056700000AFF000AFF000AFF000AFF000AFF0057
:100577000AFF000AFF000AFF000AFF000AFF000A3D
:100587006036002AFF000AFF000AFF003EFF000A4C
:10059700FF003EFF000AFF003EFF000AFF000AFFC0
:1005A700000AFF003EFF003EFF003EFF003EFF0047
:0A05B7000AFF000AFF000AFF000A15
:01000A0022D3
:03003E007F00221E
:100B7600438E805389F07BE07A28790178009000D3
:100B860037120215120BBDEFF404F58A7BE07A28C2
:100B960079017800900037120215120BBDC3E49F4D
:100BA600FFE49EFE74019DFDE49CFC7808120201A0
:070BB6008F8CD28CD2A92222
:03000B00020B24C1
:040B2400C0E0C0D09D
:100B2800D5080A75084C300A020513D20AA20372C6
:100B3800045036150AE50A7030850C0AD2073009C8
:100B480017E50D6007150D438F01801D538FFEC2F9
:100B5800B5D51515C2098011050BE50BD3940640D0
:090B680008C203E5126002D20686
:050B7100D0D0D0E032FD
:100AD100300B47C20B900037120215781012020139
:100AE1008E348F35900003E0FEA3E0FFE4FCFD7B34
:100AF10019FAF9F81200D1C006C007AE34AF35AB10
:100B010007AA06E4F9F8D007D006120BBD78031244
:100B11000201900065EEF0A3EFF0900065E0FEA306
:020B2100E0FFF3
:010B230022AF
:090E4D00900067E0FEA3E0FF2223
:090E5600900067EEF0A3EFF0221A
:1000260090006BEEF0A3EFF0900069ECF0A3EDF01A
:0100360022A7
:030E6E00C2B422E9
:03003B000205F6C5
:1005F600C0E0C083C082C0D075D000C004C005C0B2
:0306060006C00724
:1006090030DF04C2DF807D30DA04C2DA807630D987
:100619003DC2D9AFFBEFFEADEB7C00E42DFFEC3E14
:1006290020000E900001F0A3EFF075DB11D20080DD
:1006390053FE900001E0FCA3E0FDC3EF9DFFEE9C9B
:10064900A3F0A3EFF075DB00C200D20B803630D8DF
:1006590033C2D8900067E07002A3E06022B2B49080
:100669000069E0FEA3E0F5EAEEF5FAA3E0FEA3E0F7
:10067900FF90006AE02FF0900069E03EF08005C22B
:04068900B453DAFE8E
:10068D00D007D006D005D004D0D0D082D083D0E012
:01069D00322A
:060E6800120B76D2AF224E
:100851003004047F0180027F002009047E018002B0
:100861007E00EE5F6074E514C3950950683002366E
:10087100750D01E514131313541FAB16AA17A9180C
:10088100F582758300120056FFE514540704FEEF4C
:10089100A806088002C333D8FC30D705751503803C
:1008A1002F751501802AAB16AA17A91875F002E554
:1008B10014A4F58285F083120056F50DE51475F048
:1008C10002A429F9EA35F0FA900001120056F51553
:0A08D1000514D20922C204438F105F
:0108DB0022FA
:10046600900000E014F0701F740AF0D20590002985
:10047600E014F07012740AF0D20890006DE014F0E7
:100486007005740AF0D20190002AA3E0FAA3E0F9FD
:1004960012023190002DA3E0FAA3E0F91202319086
:1004A6000039A3E0FAA3E0F9120231900045A3E077
:1004B600FAA3E0F9120231900054A3E0FAA3E0F99E
:1004C60012023190005DA3E0FAA3E0F91202319026
:1004D6000005A3E0FAA3E0F912023190004BA3E075
:1004E600FAA3E0F9120231EF600C90001DA3E0FAC6
:1004F600A3E0F912023190004EA3E0FAA3E0F9124C
:100506000231EF600C900020A3E0FAA3E0F912029A
:1005160031900051A3E0FAA3E0F9120231EF600C2A
:0D052600900023A3E0FAA3E0F912023122B5
:1007320090003FA3E0FAA3E0F9120231900042A335
:10074200E0FAA3E0F9120231900033A3E0FAA3E049
:10075200F9120231900008A3E0FAA3E0F912023183
:10076200900030A3E0FAA3E0F9120231EF600C909E
:100772000011A3E0FAA3E0F9120231900036A3E0DF
:10078200FAA3E0F9120231EF600C900017A3E0FA2D
:10079200A3E0F9120231900048A3E0FAA3E0F912B3
:1007A2000231EF600C90001AA3E0FAA3E0F9120202
:1007B2003130060EC206900026A3E0FAA3E0F91239
:0307C200023122DF
:100C010090000BA3E0FAA3E0F912023190003CA39B
:100C1100E0FAA3E0F9120231EF600C900014A3E0B6
:100C2100FAA3E0F9120231900057A3E0FAA3E0F928
:0F0C310012023190005AA3E0FAA3E0F902023157
:100D8200AF11AE10AD0FAC0E9000601202259000B4
:100D920064E513F0E4F511F510F50FF50EF5139077
:0B0DA200000EA3E0FAA3E0F90202310A
:100C7F00300705C207120851300A05C20A1204666E
:100C8F00300505C205120732300805C208120C01E3
:100C9F00300105C201120D82E5112401F511E43571
:0E0CAF0010F510E4350FF50FE4350EF50E22AA
:100966008B228A238924EFB40C005070900979F801
:1009760028287302099D0209A20209A70209AC02EE
:1009860009B10209B60209BB0209C00209C502097A
:10099600CA0209CF0209D49000058035900008806C
:1009A6003090000B802B90000E8026900011802145
:1009B600900017801C900014801790001A801290E7
:1009C600001D800D90002080089000238003900079
:0D09D60026E522F0A3E523F0A3E524F0229E
:070003007B017A0079602205
:100E090053B1DF43B220C2B5C2098F0C438F102200
:030053000209E3BC
:1009E300C0E0C083C082C0D075D000C000C001C0C9
:0309F30002C0033C
:1009F600200313D203751A08751200751900E50C49
:100A0600C313F50A803AE50BC394014031E5192575
:100A1600E0F519E50BC3940340020519D51A21E543
:100A260012C3951B501A751A08AB1CAA1DA91E8560
:100A36001282758300E51912008305128002C20333
:030A4600750B002D
:100A4900D003D002D001D000D0D0D082D083D0E062
:010A5900326A
:090E5F008B1C8A1D891E8D1B22CB
:030E7100AF12229B
:100D23002003047F0180027F002009047E018002EA
:100D33007E00EE5F60188B168A178918EDC313F5D2
:100D430009C202E4F514538FEFD2047F02227F031A
:010D5300227D
:100C40002003047F0180027F002009047E018002CE
:100C50007E00EE5F6026538FEF750D10751508D27C
:100C600009438F018B168A178918ED75F008A404C3
:0F0C7000F509D202E4F514D2047F02227F032299
:100DD5002003047F0180027F002009047E01800238
:0C0DE5007E00EE5F60037F00227F012291
:1005C10057006E04B00000000000000000000000B1
:0A05D100000000000100000000001F
:030043000202377F
:10023700C0E0C0F0C083C082C0D075D000C000C08D
:1002470001C002C003C004C005C006C007E59A305C
:10025700E141539AFD900075E0FEA3E0FFC39000D3
:1002670074E09F900073E09E501F900070E0FBA326
:10027700E0FAA3E0F9A3E475F0011200BB85F08270
:10028700F583120056F59B800A900077E4F0300C56
:1002970002C2B7E59A20E003020339539AFE9000A1
:1002A70078E0FBA3E0FAA3E0F990007DE0FEA3E08D
:1002B700FFF5828E83E59B120083900083E0FCA309
:1002C700E0FDC3EF9DEE9C504690007BE0FEA3E06F
:1002D700FFED9FEC9E5038900080E0FBA3E0FAA36F
:1002E700E0F990007DE0FEA3E0FFF5828E83120027
:1002F70056FD900078E0FBA3E0FAA3E0F98F828E29
:10030700831200566D600890007D74FFF0A3F09093
:10031700007DE475F0011200A5FED390007CE09506
:10032700F090007BE09E500A90007DE4F0A3F0A3DC
:1003370004F0D007D006D005D004D003D002D001F6
:0D034700D000D0D0D082D083D0F0D0E032F2
:020E1900151FA3
:0A0E1B0090007FE0A81FF6FFE4F04E
:030E2500051F2284
:0100220022BB
:10069E008F258E248D238C22E52642BAE526B401C1
:1006AE0006C2B7D20C801790005D74FFF0A37400E1
:1006BE00F0A37422F0E4F5DBD290D291C20C759ABD
:1006CE0010E47B04FAF9F890003712021512015C5F
:1006DE00AB25AA24A923A82212015CEFF404F5D7B6
:1006EE00E47B04FAF9F890003712021512015CABA4
:1006FE0025AA24A923A82212015CC3E49FFFE49E2D
:10070E00FE74019DFDE49CFC78081201EE8FD64329
:10071E008E1443AF0190005174FFF0A3740EF0A33A
:04072E007419F02228
:100CBD00900078EBF0A3EAF0A3E9F0A3ECF0A3ED3C
:100CCD00F0900083E52AF0A3E52BF0900080E52756
:100CDD00F0A3E528F0A3E529F0E490007DF0A3F062
:030CED00A3F0224F
:100D5400900077E07025900070EBF0A3EAF0A3E92F
:100D6400F0E4A3F0A3F0A3ECF0A3EDF0A37401F07E
:0E0D7400300C02D2B7439A027F02227F032284
:0B0E3700900077E07002FF227F012294
:1005DB0057008504B0000000000000000000000080
:0A05EB000000000001000000000005
:0300230002035481
:10035400C0E0C0F0C083C082C0D075D000C000C06F
:1003640001C002C003C004C005C006C00730993BE9
:10037400C29990008CE0FEA3E0FFC390008BE09F45
:1003840090008AE09E501F900087E0FBA3E0FAA350
:10039400E0F9A3E475F0011200BB85F082F5831245
:1003A4000056F599800590008EE4F020980302042D
:1003B4004BC29890008FE0FBA3E0FAA3E0F9900011
:1003C40094E0FEA3E0FFF5828E83E599120083900A
:1003D400009AE0FCA3E0FDC3EF9DEE9C5046900024
:1003E40092E0FEA3E0FFED9FEC9E5038900097E072
:1003F400FBA3E0FAA3E0F9900094E0FEA3E0FFF58C
:10040400828E83120056FD90008FE0FBA3E0FAA3D6
:10041400E0F98F828E831200566D60089000947408
:10042400FFF0A3F0900094E475F0011200A5FED350
:10043400900093E095F0900092E09E500A90009412
:10044400E4F0A3F0A304F0D007D006D005D004D084
:1004540003D002D001D000D0D0D082D083D0F0D04D
:02046400E03284
:020E2800151F94
:0A0E2A00900096E0A81FF6FFE4F028
:030E3400051F2275
:100A5A008F258E248D238C22759850438E40538E79
:100A6A00FE53890FE47B04FAF9F890003712021555
:100A7A0012015CAB25AA24A923A82212015CEFF477
:100A8A0004F58BE47B04FAF9F89000371202151288
:100A9A00015CAB25AA24A923A82212015CC3E49F06
:100AAA00FFE49EFE74019DFDE49CFC78081201EEB1
:100ABA008F8DC2ABD28ED2AC90004E74FFF0A3746D
:070ACA000EF0A37428F022D6
:100CF00090008FEBF0A3EAF0A3E9F0A3ECF0A3EDF2
:100D0000F090009AE52AF0A3E52BF0900097E527F4
:100D1000F0A3E528F0A3E529F0E4900094F0A3F017
:030D2000A3F0221B
:100DAD0090008EE0701F900087EBF0A3EAF0A3E9AE
:100DBD00F0E4A3F0A3F0A3ECF0A3EDF0A37401F025
:080DCD00D2997F02227F03226C
:0B0E420090008EE07002FF227F012272
:030000000207C52F
:0C07C500787FE4F6D8FD75813502080C41
:10005600BB010CE58229F582E5833AF583E022505F
:1000660006E92582F8E622BBFE06E92582F8E222A9
:0D007600E58229F582E5833AF583E49322C3
:10008300F8BB010DE58229F582E5833AF583E8F0B3
:10009300225006E92582C8F622BBFE05E92582C85F
:0200A300F22247
:1000A500C5F0F8A3E028F0C5F0F8E58215827002E6
:0600B5001583E038F02283
:1000BB00A3F8E0C5F025F0F0E582158270021583F8
:0600CB00E0C838F0E82255
:1000D100E88FF0A4CC8BF0A42CFCE98EF0A42CFCCE
:1000E1008AF0EDA42CFCEA8EF0A4CDA8F08BF0A44C
:1000F1002DCC3825F0FDE98FF0A42CCD35F0FCEBAB
:100101008EF0A4FEA9F0EB8FF0A4CFC5F02ECD396F
:0F011100FEE43CFCEAA42DCE35F0FDE43CFC22DC
:1001200075F008758200EF2FFFEE33FECD33CDCC96
:1001300033CCC58233C5829BED9AEC99E582984019
:100140000CF582EE9BFEED9AFDEC99FC0FD5F0D6F6
:10015000E4CEFBE4CDFAE4CCF9A88222B800C1B920
:100160000059BA002DEC8BF084CFCECDFCE5F0CB5E
:10017000F97818EF2FFFEE33FEED33FDEC33FCEB97
:1001800033FB10D703994004EB99FB0FD8E5E4F952
:10019000FA227818EF2FFFEE33FEED33FDEC33FC3F
:1001A000C933C910D7059BE99A4007EC9BFCE99A33
:1001B000F90FD8E0E4C9FAE4CCFB2275F010EF2F78
:1001C000FFEE33FEED33FDCC33CCC833C810D70778
:1001D0009BEC9AE899400AED9BFDEC9AFCE899F8B3
:0E01E0000FD5F0DAE4CDFBE4CCFAE4C8F92246
:100BBD00C2D5E830E70FB2D5E4C39BFBE49AFAE463
:100BCD0099F9E498F8EC30E717B2D5120BF312014E
:100BDD005CE4C39BFBE49AFAE499F9E498F880038A
:100BED0012015C30D50DE4C39FFFE49EFEE49DFD34
:040BFD00E49CFC2256
:1001EE00E8600FECC313FCED13FDEE13FEEF13FFEF
:0301FE00D8F12213
:10020100E86010ECA2E713FCED13FDEE13FEEF1313
:04021100FFD8F02200
:10021500E493FC740193FD740293FE740393FF222F
:0C022500ECF0A3EDF0A3EEF0A3EFF0224C
:060231008A838982E47358
:1007D1000208DCE493A3F8E493A34003F68001F25A
:1007E10008DFF48029E493A3F85407240CC8C33329
:1007F100C4540F4420C8834004F456800146F6DFF8
:10080100E4800B0102040810204080900533E47E4F
:10081100019360BCA3FF543F30E509541FFEE493EC
:10082100A360010ECF54C025E060A840B8E493A3B3
:10083100FAE493A3F8E493A3C8C582C8CAC583CADE
:10084100F0A3C8C582C8CAC583CADFE9DEE780BE96
:0105F5000005
:00000001FF
