:0300000002038771
:0C038700787FE4F6D8FD75812C0203CECF
:10049800011400021200000417000000000A0800FE
:1004A80000000000000000001002150000121B3FB1
:1004B800065B4F666D7D077F6F777C395E797100CB
:0104C80040F3
:0500030012000E80FE5A
:10045700AB07AA067C007D0212003EEC4D24FF92FA
:10046700A07C007D04AF03AE0212003E7E007F0237
:10047700CFCDCFCECCCE12003EEE4F24FF92A1AE11
:1004870002AF037C007D0412003EEE4F24FF92A2D0
:010497002242
:10000E007596FFE4F5957594FFF593C2A375DA1115
:10001E00D2BF438E805389F0758ACD758CD4C28D34
:07002E00D28CD2A9D2AF224F
:03003B000204CAF2
:0C04CA00051420900415141514C2D8323B
:03000B000201FCF3
:1001FC00C0E0C0F0C083C082C0D075D000C000C0C9
:10020C0001C002C003C004C005C006C007E5162427
:10021C0001FFE43515FE7C007D0512003E8C158D2A
:10022C0016758000C374079516FFE49515FE12042D
:10023C0057E51625E02408F808E6241BF8E6F580B7
:10024C00AF14EF3395E0FEEF2513F513EE3512F5F1
:10025C0012751400C364809480501CC3E49513FF82
:10026C00E49512FE3395E08F1A8E19F518F5177573
:10027C0010007511118015AE12EE3395E085131A2E
:10028C008E19F518F517751000751110E47F0F7E97
:10029C0027FDFCAB1AAA19A918A817D31200C34042
:1002AC0015751200751300AE12EE3395E085131A16
:1002BC008E19F518F517E47F687E01FDFCAB1AAAC0
:1002CC0019A918A817120074E47B907A01F9F81296
:1002DC0004138F1A8E198D188C17E47B107A27F95A
:1002EC00F8120413AC00AD01AE02AF03E47BE87A64
:1002FC0003F9F81204138E0E8F0FE47BE87A03F9DE
:10030C00F8AF1AAE19AD18AC17120413AC00AD014E
:10031C00AE02AF03E47B64FAF9F81204138E0C8F6F
:10032C000DE47B64FAF9F8AF1AAE19AD18AC1712DC
:10033C000413AC00AD01AE02AF03E47B0AFAF9F88A
:10034C001204138E0A8F0BE47B0AFAF9F8AF1AAE7B
:10035C0019AD18AC17120413AE02AF038E088F0937
:10036C00D007D006D005D004D003D002D001D000E5
:0B037C00D0D0D082D083D0F0D0E0328F
:10039300020003E493A3F8E493A34003F68001F27D
:1003A30008DFF48029E493A3F85407240CC8C3336B
:1003B300C4540F4420C8834004F456800146F6DF3A
:1003C300E4800B0102040810204080900498E47E2E
:1003D300019360BCA3FF543F30E509541FFEE4932F
:1003E300A360010ECF54C025E060A840B8E493A3F6
:1003F300FAE493A3F8E493A3C8C582C8CAC583CA21
:10040300F0A3C8C582C8CAC583CADFE9DEE780BED8
:0104C9000032
:10003E00C2D5EC30E709B2D5E4C39DFDE49CFCEEDD
:10004E0030E715B2D5E4C39FFFE49EFE1200D9C37C
:10005E00E49DFDE49CFC80031200D930D507C3E477
:06006E009FFFE49EFE224C
:10007400E88FF0A4CC8BF0A42CFCE98EF0A42CFC2B
:100084008AF0EDA42CFCEA8EF0A4CDA8F08BF0A4A9
:100094002DCC3825F0FDE98FF0A42CCD35F0FCEB08
:1000A4008EF0A4FEA9F0EB8FF0A4CFC5F02ECD39CD
:0F00B400FEE43CFCEAA42DCE35F0FDE43CFC223A
:10041300C2D5E830E70FB2D5E4C39BFBE49AFAE414
:1004230099F9E498F8EC30E717B2D51204491201B0
:100433006AE4C39BFBE49AFAE499F9E498F880032D
:1004430012016A30D50DE4C39FFFE49EFEE49DFDD7
:04045300E49CFC2207
:1000C300EB9FF5F0EA9E42F0E99D42F0EC6480C8B4
:0600D30064809845F02254
:1000D900BC000BBE0029EF8DF084FFADF022E4CC0B
:1000E900F875F008EF2FFFEE33FEEC33FCEE9DECD4
:1000F900984005FCEE9DFE0FD5F0E9E4CEFD22ED1A
:10010900F8F5F0EE8420D21CFEADF075F008EF2F63
:10011900FFED33FD4007985006D5F0F222C398FD54
:050129000FD5F0EA22F1
:10012E0075F008758200EF2FFFEE33FECD33CDCC88
:10013E0033CCC58233C5829BED9AEC99E58298400B
:10014E000CF582EE9BFEED9AFDEC99FC0FD5F0D6E8
:10015E00E4CEFBE4CDFAE4CCF9A88222B800C1B912
:10016E000059BA002DEC8BF084CFCECDFCE5F0CB50
:10017E00F97818EF2FFFEE33FEED33FDEC33FCEB89
:10018E0033FB10D703994004EB99FB0FD8E5E4F944
:10019E00FA227818EF2FFFEE33FEED33FDEC33FC31
:1001AE00C933C910D7059BE99A4007EC9BFCE99A25
:1001BE00F90FD8E0E4C9FAE4CCFB2275F010EF2F6A
:1001CE00FFEE33FEED33FDCC33CCC833C810D7076A
:1001DE009BEC9AE899400AED9BFDEC9AFCE899F8A5
:0E01EE000FD5F0DAE4CDFBE4CCFAE4C8F92238
:00000001FF
