:1002F2003F065B4F666D7D077F6F000102030405B9
:020302000607EC
:03000300010807EA
:1002D400D3EF9400EE940040147D787C00ED1D7003
:0D02E400011CED4C70F7EF1F70E61E80E36B
:0102F10022EA
:10024400D2A3E4F580E509B40800503F900257F8C2
:1002540028287302026F02027302027702027B02F1
:10026400027F02028302028702028B7580012275DB
:100274008003227580072275800F2275801F2275E6
:10028400803F2275807F227580FF22C204D2032220
:10011700C2A3E4F580E50824FB604314601414705F
:1001270061AF081508EF9002FC93F5A0AE0EAF0F74
:100137008016AF081508EF9002FC93F5A0AE0EAF3E
:100147000F7C007D0A1201EF7C007D0A1201EF741B
:10015700F22DF58274023CF583E493F58022E508DD
:100167009002FC93F5A0AE0EAF0F7C007D641201E8
:10017700EF74F22FF58274023EF583E493F58075F0
:02018700080767
:010189002253
:10029400E4F5937594FFF59575960875B210F5B16C
:1002A400D2A3C2B47580FF5389F0438901758CFCD5
:1002B400758A177F887E131202D4D2A9D28CD2AF4A
:1002C400E4F50AF50BF50EF50FD202C203C20422BF
:10018A0012029430045320B208E5111511700215B9
:10019A0010E50D150D7002150CE50D450C70E4C344
:1001AA00E5119480E5109400500FC20030010AC294
:1001BA0001050FE50F7002050EC3E5119480E510E5
:1001CA0094004007D200200102D201751000751177
:1001DA00C2750C00750D6480AA3003A7C2A9C28C2F
:0501EA00120117809EC8
:03000B0002009A56
:10009A00C0E0C0F0C083C082C0D075D000C000C02C
:1000AA0004C005C006C007758CFC758A17050BE5E8
:1000BA000B7002050A300202B2B4E50B6464450A09
:1000CA007004C202D204D3E50B9464E50A9400409A
:1000DA0027E50B249CFFE50A34FFFE7C037DE8122A
:1000EA0001EF8F09E50B5407D39403E4940040050C
:1000FA001201178003120244D007D006D005D0049B
:0D010A00D000D0D0D082D083D0F0D0E03231
:0300000002000EED
:0C000E00787FE4F6D8FD758120020055D3
:1001EF00BC000BBE0029EF8DF084FFADF022E4CCF4
:1001FF00F875F008EF2FFFEE33FEEC33FCEE9DECBD
:10020F00984005FCEE9DFE0FD5F0E9E4CEFD22ED02
:10021F00F8F5F0EE8420D21CFEADF075F008EF2F4C
:10022F00FFED33FD4007985006D5F0F222C398FD3D
:05023F000FD5F0EA22DA
:10001A0002018AE493A3F8E493A34003F68001F271
:10002A0008DFF48029E493A3F85407240CC8C333E7
:10003A00C4540F4420C8834004F456800146F6DFB6
:10004A00E4800B0102040810204080900003E47E43
:10005A00019360BCA3FF543F30E509541FFEE493AB
:10006A00A360010ECF54C025E060A840B8E493A372
:10007A00FAE493A3F8E493A3C8C582C8CAC583CA9D
:10008A00F0A3C8C582C8CAC583CADFE9DEE780BE55
:0100060000F9
:00000001FF
